:020000040800F2
:1000000000000220251A0008E9110008F711000875
:10001000FD1100080312000809120008000000008A
:1000200000000000000000000000000001C90008FE
:100030000F1200080000000041CB0008A9CB000807
:10004000751A0008751A0008751A0008751A000854
:10005000751A0008751A0008751A0008751A000844
:10006000751A0008751A0008751A0008751A000834
:100070001D120008751A0008751A0008751A000884
:10008000751A0008751A0008751A0008751A000814
:100090003112000845120008751A0008751A000888
:1000A000751A000859120008751A0008751A000818
:1000B000751A00086D12000881120008751A0008F0
:1000C000751A0008751A0008751A0008751A0008D4
:1000D000751A000895120008751A0008AD1200087C
:1000E000751A0008751A0008751A0008751A0008B4
:1000F000751A0008C5120008751A0008751A00085C
:10010000751A0008751A0008751A0008751A000893
:10011000751A0008751A0008751A0008751A000883
:10012000D9120008ED12000801130008751A000822
:10013000751A00080000000000000000751A000891
:10014000751A0008751A0008751A0008751A000853
:10015000751A0008751A0008751A0008751A000843
:10016000751A0008751A0008751A0008751A000833
:10017000751A0008751A0008000000000000000051
:08018000751A0008751A000849
:1001900010B5054C237833B9044B13B10448AFF3C1
:1001A00000800123237010BD10000020000000001B
:1001B000F0FF000808B5034B1BB103490348AFF338
:1001C000008008BD0000000014000020F0FF0008BF
:1001D0004B1C012B98BF70472DE9F003911C9B0825
:1001E000B1F80480B1F802900A8831F802CC80445A
:1001F000814402448444D9F80070D8F8006015683E
:10020000DCF80040C9F80060C8F80070CCF8005075
:100210001460D9F80470D8F804605568DCF804401C
:10022000C9F80460C8F80470CCF804505460083170
:10023000013BD5D1BDE8F00370474B1C012B98BFA3
:1002400070472DE9F003911C9B08B1F80480B1F8C8
:1002500002900A8831F802CC00EB580800EB5909EB
:1002600000EB520200EB5C0CD9F80070D8F800608B
:100270001568DCF80040C9F80060C8F80070CCF8D8
:10028000005014600831013BDFD1BDE8F003704736
:1002900053B94AB9002908BF00281CBF4FF0FF31ED
:1002A0004FF0FF3000F072B9ADF1080C6DE904CEEB
:1002B00000F006F8DDF804E0DDE9022304B0704741
:1002C0002DE9F047089E04468846002B4BD18A4210
:1002D000154667D9B2FA82F24AB1C2F1200701FA93
:1002E00002F320FA07F7954047EA030894404FEAE3
:1002F000154E230CB8FBFEF71FFA85FC0EFB178882
:1003000043EA084307FB0CF1994209D9EB1807F1BE
:10031000FF3080F01B81994240F21881023F2B444C
:100320005B1AA4B2B3FBFEF00EFB103344EA0344A5
:1003300000FB0CFCA44509D92C1900F1FF3380F017
:100340000781A44540F2048102382C4440EA07406A
:10035000A4EB0C0400271EB1D4400023C6E90043DF
:100360003946BDE8F0878B4209D9002E00F0EB80BA
:100370000027C6E9000138463946BDE8F087B3FAE0
:1003800083F7002F47D18B4202D3824200F2FA80DA
:10039000841A61EB030301209846002EE0D0C6E9E1
:1003A0000048DDE702B9FFDEB2FA82F2002A40F02F
:1003B0008F80491B4FEA154E1FFA85F80127B1FBC4
:1003C000FEFC230C0EFB1C1143EA014308FB0CF15D
:1003D000994207D9EB180CF1FF3002D2994200F292
:1003E000CD808446591AA3B2B1FBFEF00EFB101467
:1003F00043EA044408FB00F8A04507D92C1900F192
:10040000FF3302D2A04500F2B6801846A4EB0804E0
:1004100040EA0C409FE7C7F1200CBB4022FA0CFEDB
:100420004EEA030E01FA07F420FA0CF521FA0CF358
:100430004FEA1E482543B3FBF8F92C0C08FB19338F
:100440001FFA8EFA44EA034309FB0AF49C4202FABB
:1004500007F200FA07F10BD91EEB030309F1FF3095
:1004600080F087809C4240F28480A9F102097344A5
:100470001B1BADB2B3FBF8F008FB103345EA034495
:1004800000FB0AFAA24508D91EEB040400F1FF3371
:100490006BD2A24569D90238744440EA0940A0FBF6
:1004A0000289A4EB0A044C45C2464B4654D351D0B2
:1004B000002E69D0B1EB0A0564EB030404FA0CFCCE
:1004C000FD40FC404CEA0505C6E90054002747E71B
:1004D000C2F1200320FA03F7954001FA02F021FA55
:1004E00003F34FEA154E3843010CB3FBFEF71FFA36
:1004F00085F80EFB173341EA034107FB08F38B42F3
:1005000004FA02F407D9691807F1FF3C2FD28B4295
:100510002DD9023F2944CB1A81B2B3FBFEF00EFB6A
:10052000103341EA034100FB08F38B4207D96918F5
:1005300000F1FF3C17D28B4215D902382944C91A61
:1005400040EA07473BE73746304609E70746E7E614
:100550001846FBE64145ABD2B8EB020A69EB0E0246
:1005600001381346A4E76046E9E7184695E7674671
:10057000D1E781467CE702382C4447E7ACF1020C16
:100580002B442FE7384608E73746E9E6704700BFB7
:1005900080B584B000AF3B4600221A605A609A6072
:1005A000DA60534B534A1A60514B00225A60504B49
:1005B00000229A604E4B01221A614D4B00221A769E
:1005C0004B4B002283F82020494B4FF08052DA62D7
:1005D000474B4FF0C0629A62454B0022DA60444BB1
:1005E0000822DA61424B012283F83020404B01227D
:1005F0005A613F4801F082FA0346002B01D000F017
:10060000E5FC0A233B6001237B600023BB603B4683
:100610001946374801F0BCFB0346002B01D000F01F
:10062000D5FC0B233B6002237B603B4619463048D8
:1006300001F0AEFB0346002B01D000F0C7FC0C23F9
:100640003B6003237B603B461946294801F0A0FB31
:100650000346002B01D000F0B9FC0D233B600423BE
:100660007B603B461946224801F092FB0346002B73
:1006700001D000F0ABFC00233B6005237B603B46D0
:1006800019461B4801F084FB0346002B01D000F003
:100690009DFC01233B6006237B603B4619461448C2
:1006A00001F076FB0346002B01D000F08FFC022303
:1006B0003B6007237B603B4619460D4801F068FB11
:1006C0000346002B01D000F081FC03233B6008238C
:1006D0007B603B461946064801F05AFB0346002B57
:1006E00001D000F073FC00BF1037BD4680BD00BFD5
:1006F000504900200020014080B58AB000AF7860EA
:1007000007F1140300221A605A609A60DA601A61D5
:100710007B681B683C4A934271D100233B613B4B91
:100720005B6C3A4A43F480735364384B5B6C03F45C
:1007300080733B613B690023FB60344B1B6B334A86
:1007400043F004031363314B1B6B03F00403FB60A2
:10075000FB680023BB602D4B1B6B2C4A43F001034D
:1007600013632A4B1B6B03F00103BB60BB680F23B1
:100770007B610323BB610023FB6107F1140319466E
:10078000234803F041FA0F237B610323BB6100235D
:10079000FB6107F1140319461E4803F035FA1E4B9E
:1007A0001E4A1A601C4B00225A601B4B00229A60A2
:1007B000194B0022DA60184B4FF480621A61164B15
:1007C0004FF400625A61144B4FF400529A61124B7D
:1007D0004FF48072DA61104B00221A620E4B002235
:1007E0005A620D4802F010FE0346002B01D000F0C3
:1007F000EDFB7B68084A9A63074A7B68936300BFF6
:100800002837BD4680BD00BF0020014000380240AF
:100810000008024000000240984900201064024095
:1008200080B500AF174B184A1A60164B06225A6063
:10083000144B00229A60134B0022DA60114B4FF4E4
:10084000C0221A610F4B4FF4A0025A610D4B0022D7
:100850001A760C4B00225A760A4B00229A76094BE4
:100860000022DA76074B00221A77064B00225A77CD
:10087000044801F02DFD0346002B01D000F0A6FB3B
:1008800000BF80BDF84900200064004080B58AB0F8
:1008900000AF786007F1140300221A605A609A6072
:1008A000DA601A617B681B68214A93423CD10023BD
:1008B0003B61204B1B6C1F4A43F0007313641D4BBC
:1008C0001B6C03F000733B613B690023FB60194B19
:1008D0001B6B184A43F001031363164B1B6B03F0A9
:1008E0000103FB60FB684FF4C0537B610223BB61D3
:1008F0000023FB6103233B6209237B6207F114039E
:1009000019460D4803F080F900220521142002F059
:100910003EFC142002F057FC00220521152002F0B5
:1009200036FC152002F04FFC00BF2837BD4680BDC5
:1009300000640040003802400000024080B582B0F0
:1009400000AF3B4600221A605A600F4B0F4A1A60F4
:100950000D4802F04AFC0346002B01D000F036FBA4
:1009600000233B6000237B603B460022194606487B
:1009700002F0D8FC0346002B01D000F027FB00BF9B
:100980000837BD4680BD00BF204A002000740040EB
:1009900080B58AB000AF786007F1140300221A60B6
:1009A0005A609A60DA601A617B681B68174A934242
:1009B00027D100233B61164B1B6C154A43F00053B3
:1009C0001364134B1B6C03F000533B613B69002322
:1009D000FB600F4B1B6B0E4A43F0010313630C4B80
:1009E0001B6B03F00103FB60FB6810237B61032397
:1009F000BB610023FB6107F114031946054803F0AE
:100A000003F900BF2837BD4680BD00BF0074004019
:100A1000003802400000024080B582B000AF0023E1
:100A20007B60394B1B6B384A43F480031363364BAE
:100A30001B6B03F480037B607B6800233B60324BBD
:100A40001B6B314A43F4001313632F4B1B6B03F4EE
:100A500000133B603B682D4B2D4A1A602B4B002244
:100A60005A602A4B80229A60284B4FF40072DA6059
:100A7000264B4FF480621A61244B4FF400625A6196
:100A8000224B4FF400529A61204B0022DA611F4B37
:100A900000221A621D4B04225A621C4B03229A62E6
:100AA0001A4B4FF40002DA62184B4FF400121A632B
:100AB000164802F0A9FC0346002B01D000F086FA8C
:100AC000002205210C2002F062FB0C2002F07BFBCF
:100AD00000220521382002F05AFB382002F073FB77
:100AE00000220521392002F052FB392002F06BFB75
:100AF000002205213A2002F04AFB3A2002F063FB73
:100B000000BF0837BD4680BD00380240344A00208F
:100B10002864024080B500AF184A2821102009F04F
:100B2000F3FA0246164B1A60164A0021164809F0DD
:100B30001DF90246154B1A60154A0021154809F0A7
:100B400015F90246144B1A60144A0021144809F0A2
:100B50000DF90246134B1A60134A0021134809F09D
:100B600005F90246124B1A60124A0021124809F098
:100B7000FDF80246114B1A6000BF80BD1801010844
:100B8000584B00206400010819F10008944A002025
:100B90008800010839F30008604B0020AC00010810
:100BA000C10B0008984A0020D0000108A1F10008FC
:100BB000544B0020F400010875F300085C4B002042
:100BC00080B582B000AF7860012009F06FFAFBE7D2
:100BD00080B58AB000AF07F1140300221A605A6092
:100BE0009A60DA601A6100233B61594B1B6B584ACB
:100BF00043F004031363564B1B6B03F004033B6188
:100C00003B690023FB60524B1B6B514A43F080034E
:100C100013634F4B1B6B03F08003FB60FB680023E7
:100C2000BB604B4B1B6B4A4A43F001031363484BB9
:100C30001B6B03F00103BB60BB6800237B60444B6C
:100C40001B6B434A43F002031363414B1B6B03F0DE
:100C500002037B607B6800233B603D4B1B6B3C4A7F
:100C600043F0080313633A4B1B6B03F008033B602C
:100C70003B6801228021374803F078F900224FF4C5
:100C80006471354803F072F900224FF203013348D2
:100C900003F06CF900224FF480712E4803F066F9DE
:100CA00043F220037B610023BB610123FB6107F159
:100CB00014031946284802F0A7FF4FF4C0737B6164
:100CC0000123BB610023FB6100233B6207F1140396
:100CD0001946204802F098FF4FF464737B610123AA
:100CE000BB610023FB6102233B6207F11403194639
:100CF000194802F089FF03237B610123BB610023B4
:100D0000FB6100233B6207F114031946134802F00C
:100D10007BFF4FF470437B610123BB610023FB61C8
:100D200002233B6207F1140319460C4802F06CFFE2
:100D300004237B610023BB610123FB6107F11403E2
:100D40001946074802F060FF00BF2837BD4680BD46
:100D50000038024000000240000802400004024047
:100D6000000C024080B500AF134B144A1A60124BBE
:100D7000134A5A60104B4FF480429A600E4B002287
:100D8000DA600D4B4FF480421A610B4B00225A611E
:100D9000094B00229A61084B0022DA61064B0022BF
:100DA0001A62054803F016F90346002B01D000F043
:100DB0000DF900BF80BD00BF7874002000580040CE
:100DC000801A060080B58AB000AF786007F114037E
:100DD00000221A605A609A60DA601A617B681B68A8
:100DE000204A93423AD100233B611F4B1B6C1E4AA1
:100DF00043F4800313641C4B1B6C03F480033B61BE
:100E00003B690023FB60184B1B6B174A43F002033E
:100E10001363154B1B6B03F00203FB60FB684FF47D
:100E200040637B611223BB610123FB6103233B62AF
:100E300004237B6207F1140319460C4802F0E4FE18
:100E40000023BB60084B1B6C074A43F48003136408
:100E5000054B1B6C03F48003BB60BB6800BF2837E5
:100E6000BD4680BD005800400038024000040240EA
:100E700080B500AF00F000FE00F024F8FFF7A8FEF8
:100E8000FFF7CAFD00F086FC00F0AEFCFFF780FB28
:100E900000F056FAFFF7C4FCFFF750FDFFF762FFC2
:100EA00000F09CF800F098FA00F0F4FA00F066FB0D
:100EB0000EF07EF808F0F2FEFFF72CFE08F022FF9D
:100EC000FEE7000080B594B000AF07F120033022A8
:100ED000002118460FF083F807F10C0300221A6076
:100EE0005A609A60DA601A610023BB60284B1B6C61
:100EF000274A43F080531364254B1B6C03F0805347
:100F0000BB60BB6800237B60224B1B68214A43F413
:100F1000804313601F4B1B6803F480437B607B6836
:100F200001233B624FF480337B620223BB634FF4A7
:100F30008003FB6304233B64A8237B640223BB641C
:100F40000423FB6407F12003184603F0F3FF034674
:100F5000002B01D000F03AF80F23FB6002233B6125
:100F600000237B614FF4A053BB614FF4A053FB619E
:100F700007F10C030521184604F04CFA0346002B38
:100F800001D000F023F800BF5037BD4680BD00BF40
:100F9000003802400070004080B582B000AF786039
:100FA0007B681B68074A934201D100F087FD7B688C
:100FB0001B68054A934201D10CF080FD00BF083741
:100FC000BD4680BD000001400020004080B400AF5D
:100FD00000BFBD465DF8047B7047000080B500AFE0
:100FE000184B194A1A60174B4FF482725A60154B0E
:100FF0004FF480629A60134B4FF40062DA60114B39
:1010000000221A610F4B00225A610E4B4FF40072FE
:101010009A610C4B2022DA610A4B00221A62094BBA
:1010200000225A62074B00229A62064B0A22DA62B9
:10103000044804F013FC0346002B01D0FFF7C6FF61
:1010400000BF80BDCC7400200030014080B58AB064
:1010500000AF786007F1140300221A605A609A60AA
:10106000DA601A617B681B68194A93422BD100230E
:101070003B61184B5B6C174A43F480535364154B28
:101080005B6C03F480533B613B690023FB60114BB5
:101090001B6B104A43F0010313630E4B1B6B03F0F1
:1010A0000103FB60FB6860237B610223BB610023BB
:1010B000FB6103233B6205237B6207F1140319469E
:1010C000054802F0A1FD00BF2837BD4680BD00BF26
:1010D00000300140003802400000024080B582B07C
:1010E00000AF00237B60124B5B6C114A43F48043DA
:1010F00053640F4B5B6C03F480437B607B6800237D
:101100003B600B4B1B6C0A4A43F080531364084B43
:101110001B6C03F080533B603B6800220F216FF093
:10112000010002F034F800BF0837BD4680BD00BFA3
:101130000038024080B58CB000AF78600023FB62BD
:101140000023BB6200227968192002F020F81920E0
:1011500002F039F80023FB601F4B5B6C1E4A43F022
:10116000010353641C4B5B6C03F00103FB60FB68E1
:1011700007F1100207F114031146184604F03CFB76
:1011800004F026FB03465B00FB62FB6A134AA2FBEA
:1011900003239B0C013BBB62114B124A1A60104B9C
:1011A00040F2E732DA600E4ABB6A53600C4B002211
:1011B0001A610B4B00229A60094804F0B3FB034606
:1011C000002B04D1064804F0FCFB034600E0012399
:1011D00018463037BD4680BD0038024083DE1B43D1
:1011E000247500200000014080B400AF00BFBD4660
:1011F0005DF8047B704780B400AFFEE780B400AFB9
:10120000FEE780B400AFFEE780B400AFFEE780B435
:1012100000AF00BFBD465DF8047B704780B500AFEE
:10122000024802F089FA00BF80BD00BF647600204A
:1012300080B500AF024801F0B3FC00BF80BD00BF25
:10124000F849002080B500AF024801F0A9FC00BFBA
:1012500080BD00BFF849002080B500AF024804F00F
:1012600067FC00BF80BD00BF2475002080B500AFC3
:10127000024804F05DFC00BF80BD00BFA4750020E3
:1012800080B500AF024804F053FC00BF80BD00BF32
:101290006475002080B500AF0BF078FF024805F0C0
:1012A0009DFB00BF80BD00BF6477002080B500AF0C
:1012B0000BF06CFF024805F091FB00BF80BD00BF42
:1012C000C476002080B500AF024804F031FC00BFB6
:1012D00080BD00BF2476002080B500AF024802F038
:1012E0002BFA00BF80BD00BF9849002080B500AF39
:1012F000024802F021FA00BF80BD00BF344A00203E
:1013000080B500AF024802F017FA00BF80BD00BFF1
:101310000477002080B400AF084BD3F88830074A28
:1013200043F47003C2F88830044B4FF000629A60B7
:1013300000BFBD465DF8047B704700BF00ED00E0D4
:1013400080B586B000AF07F1080300221A605A602A
:101350009A60DA603B4600221A605A601D4B4FF0DB
:1013600080421A601B4B31225A601A4B00229A604D
:10137000184B4FF40372DA60164B00221A61154BBA
:1013800080229A61134804F0CDFA0346002B01D065
:10139000FFF71CFE4FF48053BB6007F108031946AA
:1013A0000C4804F069FD0346002B01D0FFF70EFE48
:1013B00020233B6000237B603B461946054805F02F
:1013C000BBF80346002B01D0FFF700FE00BF183723
:1013D000BD4680BDE475002080B586B000AF07F142
:1013E000100300221A605A603B4600221A605A60BD
:1013F0009A60DA60254B264A1A60244B00225A6014
:10140000224B00229A60214B4FF6FF72DA601F4B8D
:1014100000221A611D4B80229A611C4804F0F5FAE3
:101420000346002B01D0FFF7D1FD20233B610023B1
:101430007B6107F110031946144805F07DF8034657
:10144000002B01D0FFF7C2FD02233B6001237B602C
:101450000023BB600023FB603B46002219460B487B
:1014600004F06EFC0346002B01D0FFF7AFFD3B46B6
:1014700004221946054804F063FC0346002B01D002
:10148000FFF7A4FD00BF1837BD4680BDA47500203E
:101490000004004080B586B000AF07F110030022C1
:1014A0001A605A603B4600221A605A609A60DA60FD
:1014B000304B314A1A602F4B00225A602D4B0022CC
:1014C0009A602C4B4FF6FF72DA602A4B00221A61A9
:1014D000284B80229A61274804F097FA0346002B94
:1014E00001D0FFF773FD20233B6100237B6107F1EF
:1014F000100319461F4805F01FF80346002B01D0C2
:10150000FFF764FD02233B6001237B600023BB6087
:101510000023FB603B4600221946164804F010FCED
:101520000346002B01D0FFF751FD3B46042219462C
:10153000104804F005FC0346002B01D0FFF746FDE0
:101540003B46082219460B4804F0FAFB0346002BE1
:1015500001D0FFF73BFD3B460C221946054804F03D
:10156000EFFB0346002B01D0FFF730FD00BF18371B
:10157000BD4680BD647500200008004080B500AF06
:101580000E4B0F4A1A600D4B29225A600B4B00225A
:101590009A600A4B40F2E732DA60084B00221A6187
:1015A000064B80229A61054804F0BCF90346002BE3
:1015B00001D0FFF70BFD00BF80BD00BF24760020E7
:1015C0000020004080B584B000AF78607B681B6865
:1015D000B3F1804F0ED10023FB60164B1B6C154AF4
:1015E00043F001031364134B1B6C03F00103FB6016
:1015F000FB681AE07B681B680F4A934215D10023F1
:10160000BB600C4B1B6C0B4A43F480731364094B97
:101610001B6C03F48073BB60BB68002205212D2086
:1016200001F0B5FD2D2001F0CEFD00BF1037BD4605
:1016300080BD00BF003802400020004080B58CB063
:1016400000AF786007F11C0300221A605A609A60AC
:10165000DA601A617B681B68494A934252D10023C1
:10166000BB61484B1B6C474A43F002031364454B74
:101670001B6C03F00203BB61BB6900237B61414B20
:101680001B6B404A43F0040313633E4B1B6B03F098
:1016900004037B617B6900233B613A4B1B6B394A36
:1016A00043F002031363374B1B6B03F002033B61F0
:1016B0003B694023FB6102233B6201237B620023E1
:1016C000BB620223FB6207F11C0319462E4802F09D
:1016D0009BFA2023FB6102233B6201237B620023F0
:1016E000BB620223FB6207F11C031946274802F084
:1016F0008BFA002205211D2001F049FD1D2001F07B
:1017000062FD39E07B681B68214A934234D1002393
:10171000FB601C4B1B6C1B4A43F004031364194B06
:101720001B6C03F00403FB60FB680023BB60154BDC
:101730001B6B144A43F002031363124B1B6B03F041
:101740000203BB60BB684FF47073FB6102233B6212
:1017500001237B620023BB620223FB6207F11C03AF
:1017600019460A4802F050FA002205211E2001F015
:101770000EFD1E2001F027FD00BF3037BD4680BDA5
:10178000000400400038024000080240000402400B
:101790000008004080B500AF114B124A1A60104B90
:1017A0004FF4E1325A600E4B00229A600C4B00223B
:1017B000DA600B4B00221A61094B0C225A61084B6C
:1017C00000229A61064B0022DA61054804F044FFCA
:1017D0000346002B01D0FFF7F9FB00BF80BD00BF1F
:1017E000647700200010014080B500AF114B124A11
:1017F0001A60104B4FF4E1325A600E4B00229A608F
:101800000C4B0022DA600B4B00221A61094B0C22B0
:101810005A61084B00229A61064B0022DA610548A2
:1018200004F01AFF0346002B01D0FFF7CFFB00BFE7
:1018300080BD00BFC47600200048004080B58CB059
:1018400000AF786007F11C0300221A605A609A60AA
:10185000DA601A617B681B68694A934263D100238E
:10186000BB61684B5B6C674A43F010035364654B84
:101870005B6C03F01003BB61BB6900237B61614BB0
:101880001B6B604A43F0010313635E4B1B6B03F059
:1018900001037B617B694FF4C063FB6102233B6200
:1018A00000237B620323BB620723FB6207F11C0357
:1018B0001946554802F0A8F9544B554A1A60534B43
:1018C0004FF000625A60514B00229A604F4B002249
:1018D000DA604E4B4FF480621A614C4B00225A6121
:1018E0004A4B00229A61494B0022DA61474B0022A1
:1018F0001A62464B00225A62444801F085FD0346B5
:10190000002B01D0FFF762FB7B68404A5A633F4AD5
:101910007B68936300220521252001F038FC2520F7
:1019200001F051FC67E07B681B683A4A934262D140
:1019300000233B61334B1B6C324A43F48023136416
:10194000304B1B6C03F480233B613B690023FB603D
:101950002C4B1B6B2B4A43F004031363294B1B6B6B
:1019600003F00403FB60FB684FF44063FB61022358
:101970003B6200237B620323BB620723FB6207F108
:101980001C031946244802F03FF9244B244A1A60EC
:10199000224B4FF000625A60204B00229A601F4B8E
:1019A0000022DA601D4B4FF480621A611B4B00224B
:1019B0005A611A4B00229A61184B0022DA61174BC8
:1019C00000221A62154B00225A62144801F01CFDD5
:1019D0000346002B01D0FFF7F9FA7B680F4A5A63E0
:1019E0000E4A7B68936300220521272001F0CFFB7C
:1019F000272001F0E8FB00BF3037BD4680BD00BFA7
:101A0000001001400038024000000240047700202E
:101A10004064024000480040000802406476002014
:101A200028600240DFF834D0002103E00C4B5B5803
:101A3000435004310B480C4B42189A42F6D30B4AE0
:101A400002E0002342F8043B094B9A42F9D3FFF726
:101A500061FC0EF095FAFFF70BFA704700000220C8
:101A6000D0200208000000201000002010000020FC
:101A700030910020FEE7000080B500AF0E4B1B68E0
:101A80000D4A43F4007313600B4B1B680A4A43F47E
:101A900080631360084B1B68074A43F4807313602C
:101AA000032001F069FB0020FFF744FBFFF716FB62
:101AB0000023184680BD00BF003C024080B400AF48
:101AC000064B1B781A46064B1B681344044A1360E6
:101AD00000BFBD465DF8047B704700BF08000020D2
:101AE000A477002080B400AF034B1B681846BD46A6
:101AF0005DF8047B704700BFA477002080B584B0F8
:101B000000AF78600023FB737B68002B01D10123B9
:101B100033E07B681B6C002B09D17868FEF7ECFD85
:101B20007B6800225A647B68002283F83C207B6833
:101B30001B6C03F01003002B18D17B681B6C23F483
:101B4000885323F0020343F002027B681A6478682A
:101B500000F040FA7B6800225A647B681B6C23F01B
:101B6000030343F001027B681A6401E00123FB7365
:101B70007B68002283F83C20FB7B18461037BD466B
:101B800080BD000080B586B000AFF860B9607A60B3
:101B900000233B61FB6893F83C30012B01D1022309
:101BA000CCE0FB68012283F83C20FB681B689B6843
:101BB00003F00103012B18D0FB681B689A68FB68CF
:101BC0001B6842F001029A605E4B1B685E4AA2FBF2
:101BD00003239A0C13465B0013443B6102E03B690C
:101BE000013B3B613B69002BF9D1FB681B689B689B
:101BF00003F00103012B40F0A080FB681B6C23F471
:101C0000E06323F0010343F48072FB681A64FB680D
:101C10001B685B6803F48063002B07D0FB681B6CB8
:101C200023F4405343F48052FB681A64FB681B6C36
:101C300003F48053B3F5805F06D1FB685B6C23F03F
:101C40000602FB685A6402E0FB6800225A64FB68E3
:101C5000002283F83C203D4B7B61FB689B6B3C4A38
:101C6000DA63FB689B6B3B4A1A64FB689B6B3A4ADE
:101C7000DA64FB681B686FF022021A60FB681B685D
:101C80005A68FB681B6842F080625A60FB681B68F8
:101C90009A68FB681B6842F480729A60FB68986BD4
:101CA000FB681B684C331946BA687B6801F05AFC24
:101CB0007B695B6803F01F03002B2AD1FB681B685C
:101CC000264A934215D0FB681B68254A934205D1EA
:101CD0001E4B5B6803F01F03002B0AD0FB681B68D8
:101CE000204A934229D1194B5B6803F01F030F2B45
:101CF00023D8FB681B689B6803F04053002B1CD162
:101D0000FB681B689A68FB681B6842F080429A6017
:101D100013E0FB681B68114A93420ED1FB681B68F5
:101D20009B6803F04053002B07D1FB681B689A683F
:101D3000FB681B6842F080429A60002318461837FF
:101D4000BD4680BD0000002083DE1B430023014010
:101D5000CD21000887220008A322000800200140AE
:101D6000002101400022014080B483B000AF7860C0
:101D700000BF0C37BD465DF8047B704780B483B06C
:101D800000AF786000BF0C37BD465DF8047B70473C
:101D900080B485B000AF786039600023BB607B6899
:101DA00093F83C30012B01D1022305E17B6801222D
:101DB00083F83C203B681B68092B25D97B681B688E
:101DC000D9683B681B689BB21A4613465B001344F4
:101DD0001E3B072202FA03F3DA437B681B680A40C2
:101DE000DA607B681B68D9683B689A683B681B6847
:101DF0009BB2184603465B0003441E3B9A407B6837
:101E00001B680A43DA6022E07B681B6819693B683B
:101E10001B689BB21A4613465B001344072202FA62
:101E200003F3DA437B681B680A401A617B681B680E
:101E300019693B689A683B681B689BB21846034661
:101E40005B0003449A407B681B680A431A613B6845
:101E50005B68062B24D87B681B68596B3B685A6803
:101E600013469B001344053B1F2202FA03F3DA4397
:101E70007B681B680A405A637B681B68596B3B6828
:101E80001B689BB218463B685A6813469B00134474
:101E9000053B00FA03F27B681B680A435A634CE077
:101EA0003B685B680C2B24D87B681B68196B3B680C
:101EB0005A6813469B001344233B1F2202FA03F384
:101EC000DA437B681B680A401A637B681B68196BDE
:101ED0003B681B689BB218463B685A6813469B00D8
:101EE0001344233B00FA03F27B681B680A431A631E
:101EF00023E07B681B68D96A3B685A6813469B00DD
:101F00001344413B1F2202FA03F3DA437B681B6848
:101F10000A40DA627B681B68D96A3B681B689BB21F
:101F200018463B685A6813469B001344413B00FA2D
:101F300003F27B681B680A43DA62224BFB607B6812
:101F40001B68214A934209D13B681B68122B05D1BB
:101F5000FB685B6843F48002FB685A607B681B681F
:101F6000194A934223D13B681B68102B03D03B686E
:101F70001B68112B1BD1FB685B6843F40002FB68F4
:101F80005A603B681B68102B11D1104B1B68104A1C
:101F9000A2FB03239A0C13469B0013445B00BB6017
:101FA00002E0BB68013BBB60BB68002BF9D17B68DA
:101FB000002283F83C20002318461437BD465DF804
:101FC000047B7047002301400020014000000020F6
:101FD00083DE1B4380B485B000AF7860794BFB6033
:101FE000FB685B6823F44032FB685A60FB685A6800
:101FF0007B685B681A43FB685A607B681B685A6899
:102000007B681B6822F480725A607B681B68596881
:102010007B681B691A027B681B680A435A607B68ED
:102020001B685A687B681B6822F040725A607B68A4
:102030001B6859687B689A687B681B680A435A600A
:102040007B681B689A687B681B6822F400629A6050
:102050007B681B6899687B68DA687B681B680A4341
:102060009A607B689B6A584A934222D07B681B68BF
:102070009A687B681B6822F070629A607B681B68B4
:1020800099687B689A6A7B681B680A439A607B68D8
:102090001B689A687B681B6822F040529A607B68D4
:1020A0001B6899687B68DA6A7B681B680A439A60D8
:1020B0000FE07B681B689A687B681B6822F070627F
:1020C0009A607B681B689A687B681B6822F04052A4
:1020D0009A607B681B689A687B681B6822F0020222
:1020E0009A607B681B6899687B681B7E5A007B68D6
:1020F0001B680A439A607B6893F82030002B1BD042
:102100007B681B685A687B681B6842F400625A60EF
:102110007B681B685A687B681B6822F460425A60BF
:102120007B681B6859687B685B6A013B5A037B6864
:102130001B680A435A6007E07B681B685A687B6823
:102140001B6822F400625A607B681B68DA6A7B684D
:102150001B6822F47002DA627B681B68D96A7B68AC
:10216000DB69013B1A057B681B680A43DA627B68FE
:102170001B689A687B681B6822F400729A607B680F
:102180001B6899687B6893F830305A027B681B683B
:102190000A439A607B681B689A687B681B6822F414
:1021A00080629A607B681B6899687B685B699A02A9
:1021B0007B681B680A439A6000BF1437BD465DF810
:1021C000047B7047002301400100000F80B584B0FC
:1021D00000AF78607B689B6BFB60FB681B6C03F057
:1021E0005003002B3CD1FB681B6C43F40072FB686E
:1021F0001A64FB681B689B6803F04053002B2BD1CB
:10220000FB681B7E002B27D1FB681B68DB6A03F48D
:102210007003002B06D0FB681B689B6803F4806387
:10222000002B19D1FB681B685A68FB681B6822F0F9
:1022300020025A60FB681B6C23F48072FB681A64EE
:10224000FB681B6C03F48053002B05D1FB681B6CEF
:1022500043F00102FB681A64F8680AF081FF0EE09F
:10226000FB681B6C03F01003002B03D0F868FFF72A
:1022700085FD04E0FB689B6BDB6C7868984700BFCA
:102280001037BD4680BD80B584B000AF78607B68F4
:102290009B6BFB60F868FFF767FD00BF1037BD461A
:1022A00080BD80B584B000AF78607B689B6BFB60BD
:1022B000FB6840221A64FB685B6C43F00402FB6815
:1022C0005A64F868FFF75AFD00BF1037BD4680BD5D
:1022D00080B584B000AF78607B68002B01D101230A
:1022E000EDE07B6893F82030DBB2002B02D17868F8
:1022F000FEF7CCFA7B681B681A687B681B6822F0C3
:1023000002021A60FFF7EEFBF86012E0FFF7EAFB4B
:102310000246FB68D31A0A2B0BD97B685B6A43F42D
:1023200000327B685A627B68052283F820200123F3
:10233000C5E07B681B685B6803F00203002BE5D1F6
:102340007B681B681A687B681B6842F001021A6090
:10235000FFF7C8FBF86012E0FFF7C4FB0246FB681A
:10236000D31A0A2B0BD97B685B6A43F400327B6873
:102370005A627B68052283F8202001239FE07B6856
:102380001B685B6803F00103002BE5D07B681B7EB4
:10239000012B08D17B681B681A687B681B6842F0B8
:1023A00080021A6007E07B681B681A687B681B68FC
:1023B00022F080021A607B685B7E012B08D17B686B
:1023C0001B681A687B681B6842F040021A6007E0CD
:1023D0007B681B681A687B681B6822F040021A60E1
:1023E0007B689B7E012B08D17B681B681A687B6821
:1023F0001B6842F020021A6007E07B681B681A68BD
:102400007B681B6822F020021A607B68DB7E012B50
:1024100008D17B681B681A687B681B6822F0100271
:102420001A6007E07B681B681A687B681B6842F0CB
:1024300010021A607B681B7F012B08D17B681B6828
:102440001A687B681B6842F008021A6007E07B6824
:102450001B681A687B681B6822F008021A607B6898
:102460005B7F012B08D17B681B681A687B681B683F
:1024700042F004021A6007E07B681B681A687B68F8
:102480001B6822F004021A607B689A687B68DB682C
:102490001A437B681B691A437B685B6942EA030144
:1024A0007B685B685A1E7B681B680A43DA617B683D
:1024B00000225A627B68012283F8202000231846FC
:1024C0001037BD4680BD000080B487B000AF786093
:1024D00039607B681B687B617B6893F82030FB74F4
:1024E000FB7C012B03D0FB7C022B40F0BE80654BB4
:1024F0007B617B69D3F8003243F001027B69C3F84A
:1025000000227B69D3F8003223F47C527B69C3F844
:1025100000227B69D3F800223B685B6A1B021A43E6
:102520007B69C3F800223B685B6903F01F0301224B
:1025300002FA03F3FB607B69D3F81C22FB68DB43E0
:102540001A407B69C3F81C223B68DB69002B23D14E
:102550007B69D3F80C22FB68DB431A407B69C3F824
:102560000C223B68DB6819043B685B689BB23A68E5
:10257000526919437B69483243F832103B689B68C3
:1025800019043B681B689AB23B685B690A43796926
:102590004833DB000B445A603B68DB69012B22D1D6
:1025A0007B69D3F80C22FB681A437B69C3F80C22C1
:1025B0003B681B6819043B685B689BB23A685269C8
:1025C00019437B69483243F832103B689B68190411
:1025D0003B68DB689AB23B685B690A4379694833B8
:1025E000DB000B445A603B689B69002B09D17B6977
:1025F000D3F80422FB68DB431A407B69C3F804224A
:1026000007E07B69D3F80422FB681A437B69C3F8AF
:1026100004223B681B69002B09D17B69D3F8142283
:10262000FB68DB431A407B69C3F8142207E07B692F
:10263000D3F81422FB681A437B69C3F814223B6861
:102640001B6A012B07D17B69D3F81C22FB681A4354
:102650007B69C3F81C227B69D3F8003223F00102A6
:102660007B69C3F80022002306E07B685B6A43F4C1
:1026700080227B685A62012318461C37BD465DF8EC
:10268000047B70470064004080B584B000AF786080
:102690007B6893F82030DBB2012B2ED17B680222BD
:1026A00083F820207B681B681A687B681B6822F00F
:1026B00001021A60FFF716FAF86012E0FFF712FA4B
:1026C0000246FB68D31A0A2B0BD97B685B6A43F47A
:1026D00000327B685A627B68052283F82020012340
:1026E00012E07B681B685B6803F00103002BE5D1F7
:1026F0007B6800225A62002306E07B685B6A43F431
:1027000000227B685A62012318461037BD4680BDFF
:1027100080B489B000AFF860B9607A603B60FB6854
:1027200093F82030FB77FB681B689B68BB61FB7FDD
:10273000012B03D0FB7F022B40F0B880BB6903F074
:102740008063002B0AD1BB6903F00063002B05D125
:10275000BB6903F08053002B00F0A080BB691B0E07
:1027600003F003037B617B69022B07D9FB685B6A7B
:1027700043F40002FB685A6201239EE001227B6958
:102780009A403B681A60BB689B68002B0DD1BB6800
:102790001B685A05BB68DB68F96809681A437B69DE
:1027A00018331B010B441A600FE0BB685B68DA004A
:1027B000BB689B681A43BB68DB68F96809681A4301
:1027C0007B6918331B010B441A60FB681968BB68EE
:1027D0001A697B6918331B010B4404331A60BB6808
:1027E0001B7D012B11D1FB681A687B6918331B0113
:1027F000134404331B68FA68116843F480727B69E0
:1028000018331B010B4404331A607B6807331B78B1
:102810001A067B6806331B781B041A437B68053352
:102820001B781B0213437A68043212781046FA6848
:10283000116843EA00027B691B010B4403F5C67370
:102840001A607B6803331B781A067B6802331B7897
:102850001B041A437B6801331B781B0213437A68FD
:1028600012781046FA68116843EA00027B691B017E
:102870000B4403F5C4731A60FB681A687B6918334C
:102880001B0113441B68FA68116843F001027B695D
:1028900018331B010B441A6000230EE0FB685B6ACF
:1028A00043F40012FB685A62012306E0FB685B6A8E
:1028B00043F48022FB685A62012318462437BD4640
:1028C0005DF8047B704780B485B000AF786000236A
:1028D000FB607B6893F82030FB72FB7A012B02D0FF
:1028E000FB7A022B1DD17B681B689B6803F0806319
:1028F000002B02D0FB680133FB607B681B689B6880
:1029000003F00063002B02D0FB680133FB607B689F
:102910001B689B6803F08053002B02D0FB680133D7
:10292000FB60FB6818461437BD465DF8047B7047B2
:1029300080B487B000AFF860B9607A603B60FB6834
:1029400093F82030FB75FB7D012B03D0FB7D022B20
:1029500040F0F380BB68002B0ED1FB681B68DB687E
:1029600003F00303002B16D1FB685B6A43F40012EB
:10297000FB685A620123E7E0FB681B681B6903F0F0
:102980000303002B07D1FB685B6A43F40012FB686A
:102990005A620123D8E0FB681A68BB681B331B012D
:1029A00013441B6803F004027B689A607B689B6891
:1029B000002B0CD1FB681A68BB681B331B01134446
:1029C0001B685B0DC3F30A027B681A600BE0FB68AF
:1029D0001A68BB681B331B0113441B68DB0823F018
:1029E00060427B685A60FB681A68BB681B331B0136
:1029F00013441B6803F002027B68DA60FB681A6804
:102A0000BB681B331B01134404331B6803F00F0224
:102A10007B681A61FB681A68BB681B331B0113448F
:102A200004331B681B0ADAB27B689A61FB681A6878
:102A3000BB681B331B01134404331B681B0C9AB285
:102A40007B685A61FB681A68BB681B01134403F575
:102A5000DC731B68DAB23B681A70FB681A68BB68E3
:102A60001B01134403F5DC731B681A0A3B6801332E
:102A7000D2B21A70FB681A68BB681B01134403F5D5
:102A8000DC731B681A0C3B680233D2B21A70FB6805
:102A90001A68BB681B01134403F5DC731B681A0E2C
:102AA0003B680333D2B21A70FB681A68BB681B011B
:102AB000134403F5DE731A683B680433D2B21A700C
:102AC000FB681A68BB681B01134403F5DE731B68BF
:102AD0001A0A3B680533D2B21A70FB681A68BB68E1
:102AE0001B01134403F5DE731B681A0C3B680633A5
:102AF000D2B21A70FB681A68BB681B01134403F555
:102B0000DE731B681A0E3B680733D2B21A70BB68BB
:102B1000002B08D1FB681B68DA68FB681B6842F071
:102B20002002DA6007E0FB681B681A69FB681B6813
:102B300042F020021A61002306E0FB685B6A43F45E
:102B40008022FB685A62012318461C37BD465DF897
:102B5000047B704780B485B000AF786039607B68D3
:102B600093F82030FB73FB7B012B02D0FB7B022B05
:102B700009D17B681B6859697B681B683A680A43FE
:102B80005A61002306E07B685B6A43F480227B681D
:102B90005A62012318461437BD465DF8047B70471E
:102BA00080B58AB000AF786000237B627B681B68C9
:102BB0005B693B627B681B685B68FB617B681B68C9
:102BC0009B68BB617B681B68DB687B617B681B68FB
:102BD0001B693B617B681B689B69FB603B6A03F078
:102BE0000103002B7CD0BB6903F00103002B23D031
:102BF0007B681B6801229A60BB6903F00203002B0B
:102C000003D0786800F07DF916E0BB6903F0040397
:102C1000002B04D07B6A43F400637B620CE0BB6949
:102C200003F00803002B04D07B6A43F480537B62DB
:102C300002E0786800F083F9BB6903F48073002B2D
:102C400024D07B681B684FF480729A60BB6903F4E0
:102C50000073002B03D0786800F05DF916E0BB69C3
:102C600003F48063002B04D07B6A43F400537B623F
:102C70000CE0BB6903F40063002B04D07B6A43F4CF
:102C800080437B6202E0786800F063F9BB6903F47B
:102C90008033002B24D07B681B684FF480329A600D
:102CA000BB6903F40033002B03D0786800F03DF9D2
:102CB00016E0BB6903F48023002B04D07B6A43F445
:102CC00000437B620CE0BB6903F40023002B04D0BB
:102CD0007B6A43F480337B6202E0786800F043F95A
:102CE0003B6A03F00803002B0CD07B6903F0100350
:102CF000002B07D07B6A43F400737B627B681B6800
:102D00001022DA603B6A03F00403002B0BD07B69CE
:102D100003F00803002B06D07B681B680822DA60EA
:102D2000786800F02AF93B6A03F00203002B09D00F
:102D30007B681B68DB6803F00303002B02D0786814
:102D40000AF0D6F93B6A03F04003002B0CD03B6934
:102D500003F01003002B07D07B6A43F480637B628F
:102D60007B681B6810221A613B6A03F02003002B6A
:102D70000BD03B6903F00803002B06D07B681B686F
:102D800008221A61786800F00CF93B6A03F010031E
:102D9000002B09D07B681B681B6903F00303002B21
:102DA00002D0786800F0F3F83B6A03F40033002B9C
:102DB0000BD0FB6903F01003002B06D07B681B6867
:102DC00010225A60786800F0F6F83B6A03F480330A
:102DD000002B0BD0FB6903F00803002B06D07B68A7
:102DE0001B6808225A60786800F0EFF83B6A03F429
:102DF0000043002B75D0FB6903F00403002B6CD05B
:102E00003B6A03F48073002B08D0FB6803F00103D6
:102E1000002B03D07B6A43F001037B623B6A03F41F
:102E20000073002B08D0FB6803F00203002B03D0D3
:102E30007B6A43F002037B623B6A03F48063002BEE
:102E400008D0FB6803F00403002B03D07B6A43F037
:102E500004037B623B6A03F40063002B3DD0FB68F4
:102E600003F07003002B38D0FB6803F07003302BA5
:102E700017D0302B04D8102B09D0202B0CD024E0F5
:102E8000502B18D0602B1BD0402B0FD01DE07B6A3D
:102E900043F008037B6218E07B6A43F010037B6217
:102EA00013E07B6A43F020037B620EE07B6A43F011
:102EB00040037B6209E07B6A43F080037B6204E0AD
:102EC0007B6A43F480737B6200BF7B681B689A69EE
:102ED0007B681B6822F070029A617B681B68042281
:102EE0005A607B6A002B08D07B685A6A7B6A1A4357
:102EF0007B685A62786800F072F800BF2837BD46D8
:102F000080BD80B483B000AF786000BF0C37BD4691
:102F10005DF8047B704780B483B000AF786000BF79
:102F20000C37BD465DF8047B704780B483B000AFBA
:102F3000786000BF0C37BD465DF8047B704780B4F5
:102F400083B000AF786000BF0C37BD465DF8047BEE
:102F5000704780B483B000AF786000BF0C37BD46C7
:102F60005DF8047B704780B483B000AF786000BF29
:102F70000C37BD465DF8047B704780B483B000AF6A
:102F8000786000BF0C37BD465DF8047B704780B4A5
:102F900083B000AF786000BF0C37BD465DF8047B9E
:102FA000704780B483B000AF786000BF0C37BD4677
:102FB0005DF8047B704780B483B000AF786000BFD9
:102FC0000C37BD465DF8047B704780B483B000AF1A
:102FD000786000BF0C37BD465DF8047B704780B455
:102FE00083B000AF786000BF0C37BD465DF8047B4E
:102FF0007047000080B485B000AF78607B6803F054
:103000000703FB600C4BDB68BB60BA684FF6FF033D
:103010001340BB60FB681A02BB68134343F0BF63F5
:1030200043F40033BB60044ABB68D36000BF14376D
:10303000BD465DF8047B704700ED00E080B400AF52
:10304000044BDB681B0A03F007031846BD465DF816
:10305000047B704700ED00E080B483B000AF03460E
:10306000FB7197F90730002B0BDBFB7903F01F0294
:10307000074997F907305B09012000FA02F241F88D
:10308000232000BF0C37BD465DF8047B704700BFAE
:1030900000E100E080B483B000AF03463960FB710B
:1030A00097F90730002B0ADB3B68DAB20C4997F935
:1030B00007301201D2B20B4483F800230AE03B68C8
:1030C000DAB20849FB7903F00F03043B1201D2B2D4
:1030D0000B441A7600BF0C37BD465DF8047B704781
:1030E00000E100E000ED00E080B489B000AFF860DE
:1030F000B9607A60FB6803F00703FB61FB69C3F109
:103100000703042B28BF0423BB61FB690433062B90
:1031100002D9FB69033B00E000237B614FF0FF32E3
:10312000BB6902FA03F3DA43BB681A407B699A4031
:103130004FF0FF317B6901FA03F3D9437B680B4001
:10314000134318462437BD465DF8047B70470000E2
:1031500080B400AFBFF34F8F054BDB6803F4E06230
:103160000349044B1343CB60BFF34F8F00BFFDE710
:1031700000ED00E00400FA0580B582B000AF786091
:103180007868FFF737FF00BF0837BD4680BD80B5C0
:1031900086B000AF0346B9607A60FB7300237B61A1
:1031A000FFF74CFF78617A68B9687869FFF79CFF90
:1031B000024697F90F3011461846FFF76BFF00BF24
:1031C0001837BD4680BD80B582B000AF0346FB71A5
:1031D00097F907301846FFF73FFF00BF0837BD4695
:1031E00080BD80B500AFFFF7B3FF80B582B000AF00
:1031F00078607B68002B01D1012314E07B681B7988
:10320000DBB2002B05D17B6800225A717868FDF78C
:10321000BFFB7B6802221A717B6800221A617B68FF
:1032200001221A71002318460837BD4680BD80B4BC
:1032300085B000AF786039600023FB600023BB607D
:103240007B685B79012B01D1022350E07B6801226E
:103250005A717B6802221A717B681B681968012207
:103260003B689A407B681B680A431A603B68002BE6
:103270001AD17B681B681B6803F00403FB607B6842
:103280001B681B6803F03803BB60FB68042B27D165
:10329000BB68382B24D17B681B685A687B681B6825
:1032A00042F001025A601BE07B681B681B6803F454
:1032B0008023FB607B681B681B6803F46013BB60A2
:1032C000FB68B3F5802F0BD1BB68B3F5601F07D146
:1032D0007B681B685A687B681B6842F002025A6070
:1032E0007B6801221A717B6800225A7100231846FC
:1032F0001437BD465DF8047B704780B483B000AFDF
:10330000786039603B68002B03D17B681B68DB6AFF
:1033100002E07B681B681B6B18460C37BD465DF8E6
:10332000047B704780B487B000AFF860B9607A6002
:1033300000237B6100233B61FB685B79012B01D19A
:10334000022336E0FB6801225A71FB6802221A71DF
:10335000FB681B681B687B6140F6FE727B6802FAA3
:1033600003F3DB437A6913407B61BB681A68BB686F
:103370005B6813433B613A697B6802FA03F37A693D
:1033800013437B61FB681B687A691A60FB681B68E2
:103390001968C0227B6802FA03F3DA43FB681B68F2
:1033A0000A401A60FB6801221A71FB6800225A71F8
:1033B000002318461C37BD465DF8047B704780B477
:1033C00087B000AFF860B9607A603B6000237B6132
:1033D000FB681B687B61BB68002B05D17A697B6841
:1033E000134408337B6104E07A697B681344143327
:1033F0007B617B691A463B681360002318461C37C3
:10340000BD465DF8047B704780B586B000AF78603C
:1034100000237B61FEF766FB38617B68002B01D1DE
:10342000012399E07B68002283F834207B68022224
:1034300083F835207B681B681A687B681B6822F05C
:1034400001021A600FE0FEF74DFB02463B69D31AFA
:10345000052B08D97B6820225A657B68032283F8F4
:103460003520032378E07B681B681B6803F00103A9
:10347000002BE8D17B681B681B687B617A69384B3D
:1034800013407B617B685A687B689B681A437B6842
:10349000DB681A437B681B691A437B685B691A43C4
:1034A0007B689B691A437B68DB691A437B681B6AEC
:1034B00013437A6913437B617B685B6A042B07D1F2
:1034C0007B68DA6A7B681B6B13437A6913437B6101
:1034D0007B681B687A691A607B681B685B697B6123
:1034E0007B6923F007037B617B685B6A7A6913431E
:1034F0007B617B685B6A042B17D17B689B6A7A6966
:1035000013437B617B68DB6A002B0ED0786800F088
:1035100001FB0346002B08D07B6840225A657B687C
:10352000012283F83520012316E07B681B687A6945
:103530005A61786800F0B8FA0346FB607B68DB6D7F
:103540003F229A40FB689A607B6800225A657B683C
:10355000012283F83520002318461837BD4680BD68
:103560003F8010F080B586B000AFF860B9607A6037
:103570003B600023FB75FB689B6D3B61FB6893F828
:103580003430012B01D1022340E0FB68012283F893
:103590003420FB6893F83530DBB2012B2FD1FB6868
:1035A000022283F83520FB6800225A653B687A685E
:1035B000B968F86800F04AFAFB68DB6D3F229A4070
:1035C0003B699A60FB681B681A68FB681B6842F0DD
:1035D00016021A60FB681B6C002B07D0FB681B6887
:1035E0001A68FB681B6842F008021A60FB681B68D7
:1035F0001A68FB681B6842F001021A6005E0FB686C
:10360000002283F834200223FB75FB7D184618370F
:10361000BD4680BD80B584B000AF78607B689B6D8F
:10362000FB60FEF75FFAB8607B6893F83530DBB279
:10363000022B08D07B6880225A657B68002283F8C1
:103640003420012352E07B681B681A687B681B6882
:1036500022F016021A607B681B685A697B681B6837
:1036600022F080025A617B681B6C002B03D17B68BF
:103670009B6C002B07D07B681B681A687B681B68F3
:1036800022F008021A607B681B681A687B681B6856
:1036900022F001021A6013E0FEF724FA0246BB682A
:1036A000D31A052B0CD97B6820225A657B6800222F
:1036B00083F834207B68032283F83520032315E048
:1036C0007B681B681B6803F00103002BE4D17B6857
:1036D000DB6D3F229A40FB689A607B68002283F88A
:1036E00034207B68012283F83520002318461037E8
:1036F000BD4680BD80B483B000AF78607B6893F82E
:103700003530DBB2022B04D07B6880225A6501235E
:103710000CE07B68052283F835207B681B681A68FB
:103720007B681B6822F001021A60002318460C37E0
:10373000BD465DF8047B704780B586B000AF786009
:103740000023BB60924B1B68924AA2FB03239B0A97
:103750007B617B689B6D3B613B691B68FB607B68A1
:10376000DB6D08229A40FB681340002B1AD07B685F
:103770001B681B6803F00403002B13D07B681B68D5
:103780001A687B681B6822F004021A607B68DB6D94
:1037900008229A403B699A607B685B6D43F00102A6
:1037A0007B685A657B68DB6D01229A40FB68134099
:1037B000002B12D07B681B685B6903F08003002B31
:1037C0000BD07B68DB6D01229A403B699A607B6875
:1037D0005B6D43F002027B685A657B68DB6D0422F7
:1037E0009A40FB681340002B12D07B681B681B6853
:1037F00003F00203002B0BD07B68DB6D04229A40A0
:103800003B699A607B685B6D43F004027B685A6594
:103810007B68DB6D10229A40FB681340002B43D07D
:103820007B681B681B6803F00803002B3CD07B6897
:10383000DB6D10229A403B699A607B681B681B68AD
:1038400003F48023002B18D07B681B681B6803F4EB
:103850000023002B08D17B681B6C002B24D07B68D5
:103860001B6C786898471FE07B689B6C002B1BD013
:103870007B689B6C7868984716E07B681B681B68C0
:1038800003F48073002B07D17B681B681A687B6880
:103890001B6822F008021A607B681B6C002B03D0A7
:1038A0007B681B6C786898477B68DB6D20229A40A8
:1038B000FB681340002B00F08E807B681B681B6840
:1038C00003F01003002B00F086807B68DB6D202264
:1038D0009A403B699A607B6893F83530DBB2052BE0
:1038E00036D17B681B681A687B681B6822F0160259
:1038F0001A607B681B685A697B681B6822F080022B
:103900005A617B681B6C002B03D17B689B6C002B7E
:1039100007D07B681B681A687B681B6822F0080266
:103920001A607B68DB6D3F229A403B699A607B6836
:10393000002283F834207B68012283F835207B68DD
:103940001B6D002B7DD07B681B6D7868984778E0F5
:103950007B681B681B6803F48023002B1CD07B68EA
:103960001B681B6803F40023002B08D17B685B6C89
:10397000002B30D07B685B6C786898472BE07B68C5
:10398000DB6B002B27D07B68DB6B7868984722E0E5
:1039900000000020B5814E1B7B681B681B6803F488
:1039A0008073002B0FD17B681B681A687B681B68CB
:1039B00022F010021A607B68002283F834207B68B2
:1039C000012283F835207B68DB6B002B03D07B68FA
:1039D000DB6B786898477B685B6D002B32D07B6827
:1039E0005B6D03F00103002B22D07B68052283F876
:1039F00035207B681B681A687B681B6822F001020F
:103A00001A60BB680133BB607A699A4207D37B684E
:103A10001B681B6803F00103002BF2D100E000BF1C
:103A20007B68002283F834207B68012283F83520EC
:103A30007B68DB6C002B05D07B68DB6C7868984773
:103A400000E000BF1837BD4680BD00BF80B485B020
:103A500000AFF860B9607A603B60FB681B681A6869
:103A6000FB681B6822F480221A60FB681B683A68B6
:103A70005A60FB689B68402B08D1FB681B687A681A
:103A80009A60FB681B68BA68DA6007E0FB681B682D
:103A9000BA689A60FB681B687A68DA6000BF1437FE
:103AA000BD465DF8047B704780B485B000AF786098
:103AB0007B681B68DBB2103B144AA2FB03231B0983
:103AC000FB60134AFB6813441B781A467B68DA656F
:103AD000FB68032B09D97B681B6823F47F7323F0F1
:103AE00003031A1D7B689A6507E07B681B6823F453
:103AF0007F7323F003037A6893657B689B6D184698
:103B00001437BD465DF8047B704700BFABAAAAAA74
:103B10004801010880B485B000AF78600023FB73D2
:103B20007B689B6ABB607B689B69002B1FD1BB686D
:103B3000032B55D801A252F823F000BF4D3B0008DB
:103B40005F3B00084D3B0008E13B00087B68DB6AF7
:103B500003F08073002B45D00123FB7342E07B68A8
:103B6000DB6AB3F1C07F3FD10123FB733CE07B688C
:103B70009B69B3F5005F21D1BB68032B36D801A246
:103B800052F823F0953B00089B3B0008953B00084A
:103B9000AD3B00080123FB732FE07B68DB6A03F079
:103BA0008073002B24D00123FB7321E07B68DB6A48
:103BB000B3F1C07F1ED10123FB731BE0BB68022B56
:103BC00002D9032B03D018E00123FB7315E07B68B7
:103BD000DB6A03F08073002B0ED00123FB730BE034
:103BE00000BF0AE000BF08E000BF06E000BF04E03D
:103BF00000BF02E000BF00E000BFFB7B18461437A7
:103C0000BD465DF8047B704780B489B000AF786032
:103C1000396000237B6100233B610023BB610023EB
:103C2000FB616BE10122FB6902FA03F37B613B68F4
:103C30001B687A6913403B613A697B699A4240F09C
:103C40005A813B685B68012B0BD03B685B68022B99
:103C500007D03B685B68112B03D03B685B68122B75
:103C600030D17B689B68BB61FB695B00032202FA71
:103C700003F3DB43BA691340BB613B68DA68FB6955
:103C80005B0002FA03F3BA691343BB617B68BA694C
:103C90009A607B685B68BB610122FB6902FA03F3EF
:103CA000DB43BA691340BB613B685B681B0903F0E7
:103CB0000102FB6902FA03F3BA691343BB617B6833
:103CC000BA695A607B68DB68BB61FB695B000322F1
:103CD00002FA03F3DB43BA691340BB613B689A689D
:103CE000FB695B0002FA03F3BA691343BB617B68AB
:103CF000BA69DA603B685B68022B03D03B685B689B
:103D0000122B23D1FB69DA087B68083253F8223082
:103D1000BB61FB6903F007039B000F2202FA03F368
:103D2000DB43BA691340BB613B681A69FB6903F066
:103D300007039B0002FA03F3BA691343BB61FB69F3
:103D4000DA087B680832B96943F822107B681B687F
:103D5000BB61FB695B00032202FA03F3DB43BA6930
:103D60001340BB613B685B6803F00302FB695B00C7
:103D700002FA03F3BA691343BB617B68BA691A603C
:103D80003B685B6803F08053002B00F0B480002395
:103D9000FB605F4B5B6C5E4A43F4804353645C4B57
:103DA0005B6C03F48043FB60FB685A4AFB699B0829
:103DB000023352F82330BB61FB6903F003039B001D
:103DC0000F2202FA03F3DB43BA691340BB617B683D
:103DD000514A93422BD07B68504A934225D07B684E
:103DE0004F4A93421FD07B684E4A934219D07B685A
:103DF0004D4A934213D07B684C4A93420DD07B6866
:103E00004B4A934207D07B684A4A934201D1072329
:103E10000EE008230CE006230AE0052308E0042353
:103E200006E0032304E0022302E0012300E0002374
:103E3000FA6902F0030292009340BA691343BB612E
:103E40003449FB699B080233BA6941F823203A4B95
:103E50001B68BB613B69DB43BA691340BB613B68CC
:103E60005B6803F48033002B03D0BA693B691343CA
:103E7000BB61314ABB6913602F4B5B68BB613B6917
:103E8000DB43BA691340BB613B685B6803F40033F2
:103E9000002B03D0BA693B691343BB61264ABB6957
:103EA0005360254B9B68BB613B69DB43BA69134098
:103EB000BB613B685B6803F48013002B03D0BA69D5
:103EC0003B691343BB611C4ABB6993601A4BDB68B7
:103ED000BB613B69DB43BA691340BB613B685B680C
:103EE00003F40013002B03D0BA693B691343BB6191
:103EF000114ABB69D360FB690133FB61FB690F2B7E
:103F00007FF690AE00BF2437BD465DF8047B704756
:103F10000038024000380140000002400004024026
:103F200000080240000C0240001002400014024051
:103F300000180240001C0240003C014080B485B0E3
:103F400000AF78600B467B807B681A697B881340E2
:103F5000002B02D00123FB7301E00023FB73FB7BEA
:103F600018461437BD465DF8047B704780B483B0B3
:103F700000AF78600B467B8013467B707B78002B0C
:103F800003D07A887B689A6103E07B881A047B6897
:103F90009A6100BF0C37BD465DF8047B704780B462
:103FA00083B000AF78600B467B807B685A697B8862
:103FB0001A407B889A4204D17B881A047B689A61F4
:103FC00002E07A887B689A6100BF0C37BD465DF8D5
:103FD000047B704780B584B000AF78607B68002BAD
:103FE00001D101231FE17B6893F83D30DBB2002B48
:103FF00006D17B68002283F83C207868FCF7E2FE5B
:104000007B68242283F83D207B681B681A687B68E4
:104010001B6822F001021A607B681B681A687B68C3
:104020001B6842F400421A607B681B681A687B6850
:104030001B6822F400421A6001F0B6FBF8607B684E
:104040005B687B4A934207D8FB687A4A934294BFE5
:1040500001230023DBB206E0FB68774A934294BF5A
:1040600001230023DBB2002B01D00123DBE0FB683E
:10407000724AA2FB03239B0CBB607B681B685B68D6
:1040800023F03F017B681B68BA680A435A607B686B
:104090001B681B6A23F03F017B685B68644A93429C
:1040A00002D8BB68013309E0BB684FF4967202FB8B
:1040B00003F3634AA2FB03239B0901337A68126866
:1040C0000B4313627B681B68DB6923F44F4222F0C9
:1040D000FF027B685B6856498B420DD8FB68591E0E
:1040E0007B685B685B00B1FBF3F30133C3F30B0345
:1040F000042B38BF04234FE07B689B68002B11D151
:10410000FB68581E7B6859680B465B000B44B0FB8C
:10411000F3F30133C3F30B03002B0CBF0123002384
:10412000DBB212E0FB68581E7B6859680B469B00A7
:104130000B4499000B44B0FBF3F30133C3F30B03BF
:10414000002B0CBF01230023DBB2002B01D0012385
:1041500022E07B689B68002B0ED1FB68581E7B68B1
:1041600059680B465B000B44B0FBF3F30133C3F318
:104170000B0343F400430FE0FB68581E7B6859684B
:104180000B469B000B4499000B44B0FBF3F3013347
:10419000C3F30B0343F44043796809681343CB61CD
:1041A0007B681B681B6823F0C0017B68DA697B6849
:1041B0001B6A1A437B681B680A431A607B681B688A
:1041C0009B6823F4034323F0FF037A6811697A683C
:1041D000D26811437A6812680B4393607B681B684E
:1041E000DB6823F0FF017B685A697B689B691A438F
:1041F0007B681B680A43DA607B681B681A687B6807
:104200001B6842F001021A607B6800221A647B6816
:10421000202283F83D207B6800221A637B680022FD
:1042200083F83E20002318461037BD4680BD00BFEE
:10423000A08601007F841E00FF083D0083DE1B4333
:10424000D34D621080B588B002AFF86008461146C1
:104250001A4603467B810B463B811346FB80FDF7E4
:1042600041FC7861FB6893F83D30DBB2202B40F0D5
:10427000D9807B690093192301226D49F86800F009
:104280007BFC0346002B01D00223CCE0FB6893F8B3
:104290003C30012B01D10223C5E0FB68012283F8E9
:1042A0003C20FB681B681B6803F00103012B07D04F
:1042B000FB681B681A68FB681B6842F001021A6001
:1042C000FB681B681A68FB681B6822F400621A60AE
:1042D000FB68212283F83D20FB68402283F83E20C2
:1042E000FB6800221A64FB683A6A5A62FB68BA8C5F
:1042F0005A85FB685B8D9AB2FB681A85FB684D4A4C
:10430000DA62F8883A8979897B690193BB6A0093FC
:104310000346F86800F0B6FA0346002B52D001239A
:1043200081E07A69B96AF86800F0FCFC0346002B6A
:104330000DD0FB681B6C042B07D1FB681B681A6847
:10434000FB681B6842F400721A6001236BE0FB6893
:104350005B6A1A78FB681B681A61FB685B6A5A1C07
:10436000FB685A62FB681B8D013B9AB2FB681A8599
:10437000FB685B8D9BB2013B9AB2FB685A85FB6878
:104380001B685B6903F00403042B1BD1FB681B8DC6
:10439000002B17D0FB685B6A1A78FB681B681A61F0
:1043A000FB685B6A5A1CFB685A62FB681B8D013B09
:1043B0009AB2FB681A85FB685B8D9BB2013B9AB28F
:1043C000FB685A85FB681B8D002BAAD17A69B96AF4
:1043D000F86800F0E8FC0346002B0DD0FB681B6C6E
:1043E000042B07D1FB681B681A68FB681B6842F442
:1043F00000721A60012316E0FB681B681A68FB68EC
:104400001B6842F400721A60FB68202283F83D208A
:10441000FB68002283F83E20FB68002283F83C20E2
:10442000002300E0022318461837BD4680BD00BFB8
:10443000020010000000FFFF80B58CB002AFF860F2
:10444000084611461A4603467B810B463B811346BC
:10445000FB80FDF747FB7862FB6893F83D30DBB2E9
:10446000202B40F008827B6A0093192301227B49AC
:10447000F86800F081FB0346002B01D00223FBE12A
:10448000FB6893F83C30012B01D10223F4E1FB6877
:10449000012283F83C20FB681B681B6803F00103C2
:1044A000012B07D0FB681B681A68FB681B6842F089
:1044B00001021A60FB681B681A68FB681B6822F41B
:1044C00000621A60FB68222283F83D20FB684022CC
:1044D00083F83E20FB6800221A64FB683A6B5A623C
:1044E000FB68BA8E5A85FB685B8D9AB2FB681A85A9
:1044F000FB685B4ADA62F8883A8979897B6A0193BA
:10450000BB6B00930346F86800F050FA0346002B9B
:1045100001D00123B0E1FB681B8D002B13D10023D8
:104520003B62FB681B685B693B62FB681B689B69BD
:104530003B623B6AFB681B681A68FB681B6842F4B5
:1045400000721A6084E1FB681B8D012B1BD1FB6894
:104550001B681A68FB681B6822F480621A600023DB
:10456000FB61FB681B685B69FB61FB681B689B69FF
:10457000FB61FB69FB681B681A68FB681B6842F4F7
:1045800000721A6064E1FB681B8D022B1BD1FB6873
:104590001B681A68FB681B6822F480621A60FB685B
:1045A0001B681A68FB681B6842F400621A600023EB
:1045B000BB61FB681B685B69BB61FB681B689B692F
:1045C000BB61BB6944E100237B61FB681B685B69DD
:1045D0007B61FB681B689B697B617B6938E1FB68D9
:1045E0001B8D032B00F2F180FB681B8D012B23D167
:1045F0007A6AB96BF86800F017FC0346002B01D00B
:10460000012339E1FB681B681A69FB685B6AD2B257
:104610001A70FB685B6A5A1CFB685A62FB681B8D48
:10462000013B9AB2FB681A85FB685B8D9BB2013B2C
:104630009AB2FB685A850BE1FB681B8D022B4ED1A9
:104640007B6A0093BB6B00220649F86800F094FA7D
:104650000346002B08D001230EE100BF020010002A
:104660000000FFFF04000100FB681B681A68FB687C
:104670001B6842F400721A60FB681B681A69FB68C9
:104680005B6AD2B21A70FB685B6A5A1CFB685A629A
:10469000FB681B8D013B9AB2FB681A85FB685B8D3A
:1046A0009BB2013B9AB2FB685A85FB681B681A698A
:1046B000FB685B6AD2B21A70FB685B6A5A1CFB68C3
:1046C0005A62FB681B8D013B9AB2FB681A85FB6836
:1046D0005B8D9BB2013B9AB2FB685A85B8E07B6A5E
:1046E0000093BB6B00226649F86800F045FA034668
:1046F000002B01D00123BFE0FB681B681A68FB6830
:104700001B6822F480621A60FB681B681A69FB68E8
:104710005B6AD2B21A70FB685B6A5A1CFB685A6209
:10472000FB681B8D013B9AB2FB681A85FB685B8DA9
:104730009BB2013B9AB2FB685A857B6A0093BB6BC4
:1047400000224F49F86800F017FA0346002B01D009
:10475000012391E0FB681B681A68FB681B6842F440
:1047600000721A60FB681B681A69FB685B6AD2B248
:104770001A70FB685B6A5A1CFB685A62FB681B8DE7
:10478000013B9AB2FB681A85FB685B8D9BB2013BCB
:104790009AB2FB685A85FB681B681A69FB685B6AFA
:1047A000D2B21A70FB685B6A5A1CFB685A62FB68DB
:1047B0001B8D013B9AB2FB681A85FB685B8D9BB22F
:1047C000013B9AB2FB685A8542E07A6AB96BF86895
:1047D00000F02AFB0346002B01D001234CE0FB68CC
:1047E0001B681A69FB685B6AD2B21A70FB685B6A65
:1047F0005A1CFB685A62FB681B8D013B9AB2FB682E
:104800001A85FB685B8D9BB2013B9AB2FB685A85A7
:10481000FB681B685B6903F00403042B18D1FB6879
:104820001B681A69FB685B6AD2B21A70FB685B6A24
:104830005A1CFB685A62FB681B8D013B9AB2FB68ED
:104840001A85FB685B8D9BB2013B9AB2FB685A8567
:10485000FB681B8D002B7FF4C2AEFB68202283F81F
:104860003D20FB68002283F83E20FB68002283F88D
:104870003C20002300E0022318462837BD4680BDB7
:104880000400010080B588B002AFF8600846114608
:104890001A4603467B810B463B811346FB80FB682F
:1048A0001B681A68FB681B6842F480721A607B6A96
:1048B00000933B6A00224FF00111F86800F05CF9A8
:1048C0000346002B0CD0FB681B681B6803F4807345
:1048D000002B03D0FB684FF400721A6403235FE0DF
:1048E0007B89DBB21A46FB681B6802F0FE021A6184
:1048F0007B6A3A6A2C49F86800F095F90346002B68
:1049000001D001234CE000237B61FB681B685B69DD
:104910007B61FB681B689B697B617B697A6A396A8A
:10492000F86800F0FFF90346002B0DD0FB681B6C04
:10493000042B07D1FB681B681A68FB681B6842F4EC
:1049400000721A6001232BE0FB88012B05D13B8903
:10495000DAB2FB681B681A6121E03B891B0A9BB233
:10496000DAB2FB681B681A617A6A396AF86800F083
:10497000D9F90346002B0DD0FB681B6C042B07D123
:10498000FB681B681A68FB681B6842F400721A60B7
:10499000012305E03B89DAB2FB681B681A6100233A
:1049A00018461837BD4680BD0200010080B588B0AA
:1049B00002AFF860084611461A4603467B810B4653
:1049C0003B811346FB80FB681B681A68FB681B6809
:1049D00042F480621A60FB681B681A68FB681B68F7
:1049E00042F480721A607B6A00933B6A00224FF0A7
:1049F0000111F86800F0C0F80346002B0CD0FB68EA
:104A00001B681B6803F48073002B03D0FB684FF412
:104A100000721A640323A9E07B89DBB21A46FB68A3
:104A20001B6802F0FE021A617B6A3A6A5149F86813
:104A300000F0F9F80346002B01D0012396E0002393
:104A40007B61FB681B685B697B61FB681B689B691A
:104A50007B617B697A6A396AF86800F063F903461A
:104A6000002B0DD0FB681B6C042B07D1FB681B6867
:104A70001A68FB681B6842F400721A60012375E033
:104A8000FB88012B05D13B89DAB2FB681B681A61F0
:104A900021E03B891B0A9BB2DAB2FB681B681A61F2
:104AA0007A6A396AF86800F03DF90346002B0DD0A8
:104AB000FB681B6C042B07D1FB681B681A68FB683A
:104AC0001B6842F400721A6001234FE03B89DAB29E
:104AD000FB681B681A617A6A396AF86800F022F983
:104AE0000346002B0DD0FB681B6C042B07D1FB6821
:104AF0001B681A68FB681B6842F400721A60012385
:104B000034E0FB681B681A68FB681B6842F480721B
:104B10001A607B6A00933B6A00224FF00111F8682B
:104B200000F02AF80346002B0CD0FB681B681B68BA
:104B300003F48073002B03D0FB684FF400721A64F7
:104B4000032313E07B89DBB243F00103DAB2FB6895
:104B50001B681A617B6A3A6A0649F86800F063F8D4
:104B60000346002B01D0012300E00023184618372C
:104B7000BD4680BD0200010080B584B000AFF86082
:104B8000B9603B601346FB7125E03B68B3F1FF3F22
:104B900021D0FCF7A7FF0246BB69D31A3A689A42B4
:104BA00002D33B68002B16D1FB6800221A63FB6816
:104BB000202283F83D20FB68002283F83E20FB681A
:104BC0001B6C43F02002FB681A64FB68002283F828
:104BD0003C20012323E0BB681B0CDBB2012B0DD171
:104BE000FB681B685B69DA43BB6813409BB2002B10
:104BF0000CBF01230023DBB21A460CE0FB681B68E4
:104C00009B69DA43BB6813409BB2002B0CBF0123A6
:104C10000023DBB21A46FB799A42B6D0002318462D
:104C20001037BD4680BD80B584B000AFF860B96074
:104C30007A603B6051E0FB681B685B6903F480634A
:104C4000B3F5806F23D1FB681B681A68FB681B688B
:104C500042F400721A60FB681B686FF480625A614C
:104C6000FB6800221A63FB68202283F83D20FB6862
:104C7000002283F83E20FB681B6C43F00402FB68B3
:104C80001A64FB68002283F83C20012346E07B681D
:104C9000B3F1FF3F21D0FCF725FF02463B68D31A52
:104CA0007A689A4202D37B68002B16D1FB680022F7
:104CB0001A63FB68202283F83D20FB68002283F8FA
:104CC0003E20FB681B6C43F02002FB681A64FB6803
:104CD000002283F83C20012320E0BB681B0CDBB2E0
:104CE000012B0CD1FB681B685B69DA43BB6813407E
:104CF0009BB2002B14BF01230023DBB20BE0FB6847
:104D00001B689B69DA43BB6813409BB2002B14BF3E
:104D100001230023DBB2002B8DD10023184610376E
:104D2000BD4680BD80B584B000AFF860B9607A60E0
:104D30002DE0F86800F0CEF80346002B01D00123E7
:104D40002DE0BB68B3F1FF3F21D0FCF7CBFE02465C
:104D50007B68D31ABA689A4202D3BB68002B16D17B
:104D6000FB6800221A63FB68202283F83D20FB6861
:104D7000002283F83E20FB681B6C43F02002FB6896
:104D80001A64FB68002283F83C20012307E0FB68DB
:104D90001B685B6903F08003802BCAD1002318468F
:104DA0001037BD4680BD80B584B000AFF860B960F3
:104DB0007A602DE0F86800F08DF80346002B01D0F2
:104DC00001232DE0BB68B3F1FF3F21D0FCF78AFE41
:104DD00002467B68D31ABA689A4202D3BB68002B9A
:104DE00016D1FB6800221A63FB68202283F83D205D
:104DF000FB68002283F83E20FB681B6C43F0200216
:104E0000FB681A64FB68002283F83C20012307E05A
:104E1000FB681B685B6903F00403042BCAD1002301
:104E200018461037BD4680BD80B584B000AFF8602D
:104E3000B9607A6042E0FB681B685B6903F01003AD
:104E4000102B19D1FB681B686FF010025A61FB68C8
:104E500000221A63FB68202283F83D20FB680022B1
:104E600083F83E20FB681A6CFB681A64FB6800221A
:104E700083F83C20012329E0FCF734FE02467B68DE
:104E8000D31ABA689A4202D3BB68002B16D1FB68CA
:104E900000221A63FB68202283F83D20FB68002271
:104EA00083F83E20FB681B6C43F02002FB681A6409
:104EB000FB68002283F83C20012307E0FB681B68A5
:104EC0005B6903F04003402BB5D10023184610372F
:104ED000BD4680BD80B483B000AF78607B681B683E
:104EE0005B6903F48063B3F5806F1BD17B681B683B
:104EF0006FF480625A617B6800221A637B6820220B
:104F000083F83D207B68002283F83E207B681B6C81
:104F100043F004027B681A647B68002283F83C201B
:104F2000012300E0002318460C37BD465DF8047BE2
:104F30007047000080B586B000AF78607B68002BBA
:104F400001D101235BE27B681B6803F00103002BA6
:104F500075D0A34B9B6803F00C03042B0CD0A04B23
:104F60009B6803F00C03082B12D19D4B5B6803F484
:104F70008003B3F5800F0BD1994B1B6803F400330A
:104F8000002B5BD07B685B68002B57D1012336E296
:104F90007B685B68B3F5803F06D1914B1B68904AF4
:104FA00043F4803313601DE07B685B68B3F5A02F8A
:104FB0000CD18B4B1B688A4A43F480231360884BC7
:104FC0001B68874A43F4803313600BE0844B1B68F3
:104FD000834A23F480331360814B1B68804A23F497
:104FE000802313607B685B68002B13D0FCF77AFD8D
:104FF000386108E0FCF776FD02463B69D31A642B62
:1050000001D90323FBE1764B1B6803F40033002B2B
:10501000F0D014E0FCF766FD386108E0FCF762FDB3
:1050200002463B69D31A642B01D90323E7E16C4B99
:105030001B6803F40033002BF0D100E000BF7B6855
:105040001B6803F00203002B63D0654B9B6803F0E1
:105050000C03002B0BD0624B9B6803F00C03082B56
:105060001CD15F4B5B6803F48003002B16D15C4BB3
:105070001B6803F00203002B05D07B68DB68012B63
:1050800001D00123BBE1564B1B6823F0F8027B687B
:105090001B69DB00524913430B603AE07B68DB6815
:1050A000002B20D04F4B01221A60FCF71BFD38610A
:1050B00008E0FCF717FD02463B69D31A022B01D921
:1050C00003239CE1464B1B6803F00203002BF0D046
:1050D000434B1B6823F0F8027B681B69DB004049E7
:1050E00013430B6015E03F4B00221A60FCF7FAFCFB
:1050F000386108E0FCF7F6FC02463B69D31A022B44
:1051000001D903237BE1364B1B6803F00203002B1C
:10511000F0D17B681B6803F00803002B30D07B685C
:105120005B69002B16D0304B01221A60FCF7DAFCC9
:10513000386108E0FCF7D6FC02463B69D31A022B23
:1051400001D903235BE1264B5B6F03F00203002BC5
:10515000F0D015E0244B00221A60FCF7C3FC386144
:1051600008E0FCF7BFFC02463B69D31A022B01D9C9
:10517000032344E11A4B5B6F03F00203002BF0D1D1
:105180007B681B6803F00403002B00F0A080002361
:10519000FB75134B1B6C03F08053002B0FD10023C6
:1051A000BB600F4B1B6C0E4A43F0805313640C4BD7
:1051B0001B6C03F08053BB60BB680123FB750B4B7A
:1051C0001B6803F48073002B21D1084B1B68074A2E
:1051D00043F480731360FCF785FC386111E000BF75
:1051E0000038024000004742800E474200700040F5
:1051F000FCF778FC02463B69D31A022B01D9032342
:10520000FDE0814B1B6803F48073002BF0D07B68BA
:105210009B68012B06D17D4B1B6F7C4A43F0010339
:1052200013671CE07B689B68052B0CD1774B1B6FC9
:10523000764A43F004031367744B1B6F734A43F0C1
:10524000010313670BE0714B1B6F704A23F00103DE
:1052500013676E4B1B6F6D4A23F0040313677B6863
:105260009B68002B15D0FCF73DFC38610AE0FCF789
:1052700039FC02463B69D31A41F28832934201D984
:105280000323BCE0614B1B6F03F00203002BEED045
:1052900014E0FCF727FC38610AE0FCF723FC024627
:1052A0003B69D31A41F28832934201D90323A6E025
:1052B000564B1B6F03F00203002BEED1FB7D012B3D
:1052C00005D1524B1B6C514A23F0805313647B6809
:1052D0009B69002B00F092804C4B9B6803F00C0301
:1052E000082B5CD07B689B69022B41D1484B002284
:1052F0001A60FCF7F7FB386108E0FCF7F3FB0246A5
:105300003B69D31A022B01D9032378E03F4B1B687A
:1053100003F00073002BF0D17B68DA697B681B6AAD
:105320001A437B685B6A9B011A437B689B6A5B0834
:10533000013B1B041A437B68DB6A1B06334913439A
:105340004B60334B01221A60FCF7CCFB386108E05C
:10535000FCF7C8FB02463B69D31A022B01D9032391
:105360004DE02A4B1B6803F00073002BF0D045E0A2
:10537000274B00221A60FCF7B5FB386108E0FCF708
:10538000B1FB02463B69D31A022B01D9032336E055
:105390001E4B1B6803F00073002BF0D12EE07B68DE
:1053A0009B69012B01D1012329E0184B9B68FB600D
:1053B000FB6803F480027B68DB699A421CD1FB68BE
:1053C00003F03F027B681B6A9A4215D1FA6847F6E0
:1053D000C07313407A68526A93420DD1FB6803F49C
:1053E00040327B689B6A9A4206D1FB6803F0706288
:1053F0007B68DB6A9A4201D0012300E00023184653
:105400001837BD4680BD00BF007000400038024024
:105410006000474280B584B000AF786039607B6837
:10542000002B01D10123CCE0684B1B6803F00F0374
:105430003A689A420CD9654B3A68D2B21A70634BFB
:105440001B6803F00F033A689A4201D00123B8E0C9
:105450007B681B6803F00203002B20D07B681B686D
:1054600003F00403002B05D0594B9B68584A43F4C2
:10547000E05393607B681B6803F00803002B05D0A2
:10548000534B9B68524A43F460439360504B9B6874
:1054900023F0F0027B689B684D4913438B607B6867
:1054A0001B6803F00103002B44D07B685B68012B71
:1054B00007D1474B1B6803F40033002B19D101239C
:1054C0007FE07B685B68022B03D07B685B68032B03
:1054D00007D13F4B1B6803F00073002B09D1012358
:1054E0006FE03B4B1B6803F00203002B01D101234B
:1054F00067E0374B9B6823F003027B685B683449A5
:1055000013438B60FCF7EEFAF8600AE0FCF7EAFA66
:105510000246FB68D31A41F28832934201D9032331
:105520004FE02B4B9B6803F00C027B685B689B0091
:105530009A42EBD1254B1B6803F00F033A689A425D
:105540000CD2224B3A68D2B21A70204B1B6803F07F
:105550000F033A689A4201D0012332E07B681B684E
:1055600003F00403002B08D0194B9B6823F4E0528E
:105570007B68DB68164913438B607B681B6803F00C
:105580000803002B09D0124B9B6823F460427B6810
:105590001B69DB000E4913438B6000F021F80146C4
:1055A0000B4B9B681B0903F00F030A4AD35C21FADB
:1055B00003F3094A1360094B1B681846FBF7BAFD51
:1055C000002318461037BD4680BD00BF003C024096
:1055D00000380240300101080000002004000020D3
:1055E000F0B585B000AF00237B600023FB60002393
:1055F0003B600023BB60634B9B6803F00C03042BF0
:1056000007D0082B08D0002B40F0B4805E4BBB6065
:10561000B3E05E4BBB60B0E05A4B5B6803F03F0306
:105620007B60584B5B6803F48003002B4AD0554BDA
:105630005B689B094FF0000440F2FF114FF000023D
:1056400003EA010504EA0206294632464FF0000348
:105650004FF00004540144EAD1644B01194622463C
:10566000491B62EB06024FF000034FF00004940167
:1056700044EA91648B015B1A64EB02044FF0000171
:105680004FF00002E20042EA5372D9000B46144682
:105690005B1944EB06044FF000014FF00002620278
:1056A00042EAD35259020B461446184621467B68FB
:1056B0004FF000041A462346FAF7EAFD03460C466B
:1056C000FB6049E02F4B5B689B094FF0000440F200
:1056D000FF114FF0000203EA010504EA0206294621
:1056E00032464FF000034FF00004540144EAD16405
:1056F0004B0119462246491B62EB06024FF000039C
:105700004FF00004940144EA91648B015B1A64EB4E
:1057100002044FF000014FF00002E20042EA53722F
:10572000D9000B4614465B1944EB06044FF0000108
:105730004FF00002A20242EA935299020B4614462D
:10574000184621467B684FF000041A462346FAF7B4
:105750009FFD03460C46FB600A4B5B681B0C03F085
:10576000030301335B003B60FA683B68B2FBF3F371
:10577000BB6002E0044BBB6000BFBB681846143737
:10578000BD46F0BD003802400024F40000127A004B
:1057900080B400AF034B1B681846BD465DF8047B20
:1057A000704700BF0000002080B500AFFFF7F0FF9A
:1057B0000146054B9B689B0A03F00703034AD35C31
:1057C00021FA03F3184680BD003802404001010869
:1057D00080B500AFFFF7DCFF0146054B9B685B0B14
:1057E00003F00703034AD35C21FA03F3184680BD94
:1057F000003802404001010880B483B000AF7860F7
:1058000039607B680F221A60124B9B6803F0030219
:105810007B685A600F4B9B6803F0F0027B689A60CC
:105820000C4B9B6803F4E0527B68DA60094B9B6881
:10583000DB0803F4E0527B681A61074B1B6803F036
:105840000F023B681A6000BF0C37BD465DF8047B51
:10585000704700BF00380240003C024080B582B073
:1058600000AF78607B68002B01D1012356E07B6894
:1058700000229A627B6893F85130DBB2002B06D18C
:105880007B68002283F850207868FBF7DFFB7B6899
:10589000022283F851207B681B681A687B681B68AA
:1058A00022F040021A607B685A687B689B681A4342
:1058B0007B68DB681A437B681B691A437B685B69FA
:1058C0001A437B689B6903F400731A437B68DB69A6
:1058D0001A437B681B6A42EA03017B689A6A7B6809
:1058E0001B680A431A607B689B691B0C03F0040168
:1058F0007B685A6A7B681B680A435A607B681B682E
:10590000DA697B681B6822F40062DA617B68002236
:105910005A657B68012283F8512000231846083716
:10592000BD4680BD80B582B000AF78607B68002B3B
:1059300001D101231DE07B6893F83D30DBB2002BE1
:1059400006D17B68002283F83C207868FBF73AFE9A
:105950007B68022283F83D207B681A687B680433E9
:105960001946104600F05EFB7B68012283F83D205B
:10597000002318460837BD4680BD80B485B000AF0F
:1059800078607B68022283F83D207B681B689B68F7
:1059900003F00703FB60FB68062B07D07B681B68DE
:1059A0001A687B681B6842F001021A607B6801225A
:1059B00083F83D20002318461437BD465DF8047B6C
:1059C000704780B485B000AF78607B681B68DA6888
:1059D0007B681B6842F00102DA607B681B689B6889
:1059E00003F00703FB60FB68062B07D07B681B688E
:1059F0001A687B681B6842F001021A60002318468F
:105A00001437BD465DF8047B704780B582B000AFA7
:105A100078607B68002B01D101231DE07B6893F83F
:105A20003D30DBB2002B06D17B68002283F83C209E
:105A30007868FBF703FE7B68022283F83D207B68D1
:105A40001A687B6804331946104600F0EBFA7B684D
:105A5000012283F83D20002318460837BD4680BD4B
:105A600080B584B000AF786039603B680C2B41D8BA
:105A700001A252F823F000BFAD5A0008F55A000801
:105A8000F55A0008F55A0008BF5A0008F55A0008F0
:105A9000F55A0008F55A0008D15A0008F55A0008CE
:105AA000F55A0008F55A0008E35A00087B681B689D
:105AB000DA687B681B6842F00202DA601BE07B68F0
:105AC0001B68DA687B681B6842F00402DA6012E047
:105AD0007B681B68DA687B681B6842F00802DA6042
