:020000040800F2
:1000000000000220711500082910000837100008B0
:100010003D100008431000084910000800000000CF
:1000200000000000000000000000000051B20008C5
:100030004F1000080000000091B40008F9B4000857
:10004000C1150008C1150008C1150008C115000838
:10005000C1150008C1150008C1150008C115000828
:10006000C1150008C1150008C1150008C115000818
:100070005D100008C1150008C1150008C115000871
:10008000C1150008C1150008C1150008C1150008F8
:100090007110000885100008C1150008C11500087E
:1000A000C115000899100008C1150008C115000805
:1000B000C1150008C1150008C1150008C1150008C8
:1000C000C1150008C1150008C1150008C1150008B8
:1000D000C1150008AD100008C1150008ED1000089A
:1000E000C1150008C1150008C1150008C115000898
:1000F000C1150008C1150008C1150008C115000888
:10010000C1150008C1150008C1150008C115000877
:10011000C1150008C1150008C1150008C115000867
:10012000C1150008C11500082D110008C1150008EF
:10013000C115000841110008C1150008C1150008CB
:100140005511000869110008C1150008C115000803
:10015000C1150008C1150008C1150008C115000827
:10016000C1150008C1150008C1150008C115000817
:10017000C1150008C1150008C115000800000000E5
:08018000C1150008C1150008BB
:1001900010B5054C237833B9044B13B10448AFF3C1
:1001A00000800123237010BDFC010020000000002E
:1001B000FC69010808B5034B1BB103490348AFF3C1
:1001C000008008BD0000000000020020FC6901085A
:1001D000034613F8012B002AFBD1181A0138704787
:1001E00001F0FF01102A2BDB10F0070F08D010F8E8
:1001F000013B013A8B422DD010F0070F42B3F6D1EC
:10020000F0B441EA012141EA014122F007047FF004
:1002100000070023F0E80256083C85EA010586EA5B
:10022000010685FA47F5A3FA87F586FA47F6A5FA97
:1002300087F68EB9EED1F0BC01F0FF0102F00702A3
:1002400032B110F8013B013A83EA010313B1F8D14E
:100250000020704701387047002D06BF354603382F
:10026000073815F0010F07D1013015F4807F02BF68
:10027000013015F4C03F0130F0BC0138704700BFB9
:1002800053B94AB9002908BF00281CBF4FF0FF31FD
:100290004FF0FF3000F072B9ADF1080C6DE904CEFB
:1002A00000F006F8DDF804E0DDE9022304B0704751
:1002B0002DE9F047089E04468846002B4BD18A4220
:1002C000154667D9B2FA82F24AB1C2F1200701FAA3
:1002D00002F320FA07F7954047EA030894404FEAF3
:1002E000154E230CB8FBFEF71FFA85FC0EFB178892
:1002F00043EA084307FB0CF1994209D9EB1807F1CF
:10030000FF3080F01B81994240F21881023F2B445C
:100310005B1AA4B2B3FBFEF00EFB103344EA0344B5
:1003200000FB0CFCA44509D92C1900F1FF3380F027
:100330000781A44540F2048102382C4440EA07407A
:10034000A4EB0C0400271EB1D4400023C6E90043EF
:100350003946BDE8F0878B4209D9002E00F0EB80CA
:100360000027C6E9000138463946BDE8F087B3FAF0
:1003700083F7002F47D18B4202D3824200F2FA80EA
:10038000841A61EB030301209846002EE0D0C6E9F1
:100390000048DDE702B9FFDEB2FA82F2002A40F03F
:1003A0008F80491B4FEA154E1FFA85F80127B1FBD4
:1003B000FEFC230C0EFB1C1143EA014308FB0CF16D
:1003C000994207D9EB180CF1FF3002D2994200F2A2
:1003D000CD808446591AA3B2B1FBFEF00EFB101477
:1003E00043EA044408FB00F8A04507D92C1900F1A2
:1003F000FF3302D2A04500F2B6801846A4EB0804F1
:1004000040EA0C409FE7C7F1200CBB4022FA0CFEEB
:100410004EEA030E01FA07F420FA0CF521FA0CF368
:100420004FEA1E482543B3FBF8F92C0C08FB19339F
:100430001FFA8EFA44EA034309FB0AF49C4202FACB
:1004400007F200FA07F10BD91EEB030309F1FF30A5
:1004500080F087809C4240F28480A9F102097344B5
:100460001B1BADB2B3FBF8F008FB103345EA0344A5
:1004700000FB0AFAA24508D91EEB040400F1FF3381
:100480006BD2A24569D90238744440EA0940A0FB06
:100490000289A4EB0A044C45C2464B4654D351D0C2
:1004A000002E69D0B1EB0A0564EB030404FA0CFCDE
:1004B000FD40FC404CEA0505C6E90054002747E72B
:1004C000C2F1200320FA03F7954001FA02F021FA65
:1004D00003F34FEA154E3843010CB3FBFEF71FFA46
:1004E00085F80EFB173341EA034107FB08F38B4203
:1004F00004FA02F407D9691807F1FF3C2FD28B42A6
:100500002DD9023F2944CB1A81B2B3FBFEF00EFB7A
:10051000103341EA034100FB08F38B4207D9691805
:1005200000F1FF3C17D28B4215D902382944C91A71
:1005300040EA07473BE73746304609E70746E7E624
:100540001846FBE64145ABD2B8EB020A69EB0E0256
:1005500001381346A4E76046E9E7184695E7674681
:10056000D1E781467CE702382C4447E7ACF1020C26
:100570002B442FE7384608E73746E9E6704700BFC7
:1005800080B500AF174B184A1A60164B06225A6006
:10059000144B00229A60134B0022DA60114B4FF487
:1005A000C0221A610F4B4FF4A0025A610D4B00227A
:1005B0001A760C4B00225A760A4B00229A76094B87
:1005C0000022DA76074B00221A77064B00225A7770
:1005D000044801F05BF80346002B01D000F096FCC4
:1005E00000BF80BD046100200064004080B500AF02
:1005F000174B184A1A60164B06225A60144B0022F9
:100600009A60134B0022DA60114B4FF4C0221A613A
:100610000F4B4FF4A0025A610D4B00221A760C4B7F
:1006200000225A760A4B00229A76094B0022DA768B
:10063000074B00221A77064B00225A77044801F034
:1006400025F80346002B01D000F060FC00BF80BD00
:10065000DC6000200068004080B58CB000AF78609E
:1006600007F11C0300221A605A609A60DA601A616E
:100670007B681B68534A934246D1534B1B68013336
:10068000514A1360504B1B68012B0DD10023BB61F5
:100690004E4B1B6C4D4A43F0007313644B4B1B6C69
:1006A00003F00073BB61BB6900237B61474B1B6B8D
:1006B000464A43F001031363444B1B6B03F00103F1
:1006C0007B617B694FF4C053FB6102233B620023D3
:1006D0007B620323BB620923FB6207F11C031946FB
:1006E0003B4803F073FB00220521142001F02DFF8D
:1006F000142001F046FF00220521152001F025FFFE
:10070000152001F03EFF58E07B681B68314A934298
:1007100053D100233B612D4B1B6C2C4A43F080636B
:1007200013642A4B1B6C03F080633B613B69264BCF
:100730001B680133244A1360234B1B68012B0DD126
:100740000023FB60214B1B6C204A43F000731364B1
:100750001E4B1B6C03F00073FB60FB680023BB6047
:100760001A4B1B6B194A43F002031363174B1B6BA5
:1007700003F00203BB60BB684FF44053FB610223EC
:100780003B6200237B620323BB620923FB6207F108
:100790001C031946104803F019FB002205214020D4
:1007A00001F0D3FE402001F0ECFE002205214120A3
:1007B00001F0CBFE412001F0E4FE00BF3037BD4622
:1007C00080BD00BF006400401802002000380240D5
:1007D00000000240006800400004024080B582B082
:1007E00000AF00237B60174B1B6B164A43F480035A
:1007F0001363144B1B6B03F480037B607B68002343
:100800003B60104B1B6B0F4A43F4001313630D4BFB
:100810001B6B03F400133B603B68002205210C2096
:1008200001F093FE0C2001F0ACFE002205213A20DD
:1008300001F08BFE3A2001F0A4FE00BF0837BD4650
:1008400080BD00BF0038024080B5C8B000AF06F0E0
:10085000CDFF07F5847300221A605A609A60DA604F
:100860001A615A61824BC7F8083107F584731A463A
:100870001021102007F0BCFC02467E4B1A6007F1E5
:10088000F00300221A605A609A60DA601A615A61B5
:10089000794BC7F8F03007F1F0031A4628211020F1
:1008A00007F0A6FC0246754B1A6007F1D803002238
:1008B0001A605A609A60DA601A615A61704BC7F820
:1008C000D83007F1D8031A460C21102007F090FC0D
:1008D00002466C4B1A6007F1B4032422002118462B
:1008E00014F0AEFE684BC7F8B430684BC7F8BC30A4
:1008F0005C23C7F8C030664BC7F8C4304FF40073B0
:10090000C7F8C8301823C7F8CC3007F1B4031A462B
:100910000021604806F0FAFF02465F4B1A6007F1BB
:10092000900324220021184614F08AFE5B4BC7F87E
:1009300090305B4BC7F898305C23C7F89C30594B1C
:10094000C7F8A0304FF40073C7F8A4300823C7F8E5
:10095000A83007F190031A460021534806F0D6FF4D
:100960000246524B1A6007F16C03242200211846FC
:1009700014F066FE4E4BFB664E4B7B675C23BB67F9
:100980004D4BFB674FF40073C7F880300823C7F85E
:10099000843007F16C031A460021484806F0B6FF80
:1009A0000246474B1A6007F14803242200211846EB
:1009B00014F046FE434BBB64434B3B655C237B65B5
:1009C000424BBB654FF40073FB6508233B6607F1A0
:1009D00048031A4600213E4806F098FF02463D4B68
:1009E0001A6007F1240324220021184614F028FE7F
:1009F000394B7B62394BFB625C233B63384B7B6337
:100A00004FF40073BB630823FB6307F124031A460A
:100A10000021344806F07AFF0246334B1A603B4609
:100A2000184624231A46002114F00AFE3B462F4A9A
:100A30001A603B462E4A9A603B465C22DA603B468F
:100A40002C4A1A613B464FF400725A613B46082219
:100A50009A613B461A460021274806F057FF024696
:100A6000264B1A6000BF07F59077BD4680BD00BFDA
:100A7000146A0108146F0020206A010854640020E1
:100A80002C6A0108746F0020386A0108B86C0020D5
:100A90005C640020010B00082C610020446A0108FE
:100AA000186F0020F0610020310B00083061002039
:100AB0004C6A0108386100205C660020614C010826
:100AC00058640020586A01085C680020146D0020FA
:100AD000410B000850640020646A01089461002002
:100AE000B8680020014D010834610020706A0108D7
:100AF000F0630020B86A0020ED4D01084C6400202E
:100B000080B582B000AF786006F024FA082106486C
:100B100003F00FFB642007F099F8044B1B680133C6
:100B2000024A1360F2E700BF00100240BC600020E0
:100B300080B582B000AF78600A2007F087F8FBE745
:100B400080B582B000AF7860012007F07FF8FBE746
:100B500080B58CB000AF07F11C0300221A605A6008
:100B60009A60DA601A610023BB61564B1B6B554AD1
:100B700043F010031363534B1B6B03F01003BB6173
:100B8000BB6900237B614F4B1B6B4E4A43F0040350
:100B900013634C4B1B6B03F004037B617B690023E5
:100BA0003B61484B1B6B474A43F020031363454BA3
:100BB0001B6B03F020033B613B690023FB60414B4F
:100BC0001B6B404A43F0800313633E4B1B6B03F0E7
:100BD0008003FB60FB680023BB603A4B1B6B394A08
:100BE00043F001031363374B1B6B03F00103BB603E
:100BF000BB6800237B60334B1B6B324A43F002031C
:100C00001363304B1B6B03F002037B607B68002394
:100C10003B602C4B1B6B2B4A43F040031363294B67
:100C20001B6B03F040033B603B6801221821264800
:100C300003F066FA00228021244803F061FA0122C1
:100C40004FF40071214803F05BFA1823FB61012384
:100C50003B6200237B620223BB6207F11C0319463F
:100C6000194803F0B3F84FF47073FB6100233B6243
:100C700001237B6207F11C031946154803F0A6F80F
:100C80008023FB6101233B6200237B620023BB6264
:100C900007F11C0319460D4803F098F84FF4007350
:100CA000FB6101233B6200237B620223BB6207F1ED
:100CB0001C031946054803F089F800BF3037BD46CC
:100CC00080BD00BF00380240001002400018024002
:100CD0000014024080B500AF124B134A1A60114B4A
:100CE000124A5A600F4B00229A600E4B0022DA60C3
:100CF0000C4B4FF480421A610A4B00225A61094B97
:100D000000229A61074B0022DA61064B00221A6228
:100D1000044803F029FA0346002B01D000F0F6F84E
:100D200000BF80BD786F002000540040A086010005
:100D300080B58AB000AF786007F1140300221A6012
:100D40005A609A60DA601A617B681B68204A934295
:100D50003AD100233B611F4B1B6C1E4A43F48003B6
:100D600013641C4B1B6C03F480033B613B69002341
:100D7000FB60184B1B6B174A43F002031363154BC0
:100D80001B6B03F00203FB60FB684FF440737B6155
:100D90001223BB610123FB6103233B6204237B62BB
:100DA00007F1140319460C4803F010F80023BB6048
:100DB000084B1B6C074A43F400131364054B1B6C70
:100DC00003F40013BB60BB6800BF2837BD4680BD7D
:100DD00000540040003802400004024080B500AFDB
:100DE00000F0F0FB00F016F8FFF7B2FEFFF7F6FC9C
:100DF000FFF7C6FBFFF7FAFBFFF76CFF00F070FA96
:100E000000F098FA13F0B4FEFFF71EFD06F022FD85
:100E1000FEE7000080B594B000AF07F12003302258
:100E20000021184614F00CFC07F10C0300221A6094
:100E30005A609A60DA601A610023BB60284B1B6C11
:100E4000274A43F080531364254B1B6C03F08053F7
:100E5000BB60BB6800237B60224B1B68214A43F4C4
:100E6000804313601F4B1B6803F480437B607B68E7
:100E700001233B624FF480337B620223BB634FF458
:100E80008003FB6304233B64A8237B640223BB64CD
:100E90000423FB6407F12003184604F015F9034608
:100EA000002B01D000F032F80F23FB6002233B61DE
:100EB00000237B614FF4A053BB614FF4A053FB614F
:100EC00007F10C030521184604F06EFB0346002BC6
:100ED00001D000F01BF800BF5037BD4680BD00BFF9
:100EE000003802400070004080B582B000AF7860EA
:100EF0007B681B68044A934201D100F085FB00BF68
:100F00000837BD4680BD00BF0000014080B400AF7F
:100F100000BFBD465DF8047B7047000080B582B01D
:100F200000AF00237B60124B5B6C114A43F480439B
:100F300053640F4B5B6C03F480437B607B6800233E
:100F40003B600B4B1B6C0A4A43F080531364084B05
:100F50001B6C03F080533B603B6800220F216FF055
:100F6000010001F0F2FA00BF0837BD4680BD00BFA6
:100F70000038024080B58CB000AF78600023FB627F
:100F80000023BB6200227968192001F0DEFA1920E3
:100F900001F0F7FA0023FB601F4B5B6C1E4A43F025
:100FA000010353641C4B5B6C03F00103FB60FB68A3
:100FB00007F1100207F114031146184604F0E6FC8D
:100FC00004F0D0FC03465B00FB62FB6A134AA2FB01
:100FD00003239B0C013BBB62114B124A1A60104B5E
:100FE00040F2E732DA600E4ABB6A53600C4B0022D3
:100FF0001A610B4B00229A60094804F0F9FC034681
:10100000002B04D1064804F028FD034600E001232C
:1010100018463037BD4680BD0038024083DE1B4392
:10102000CC6F00200000014080B400AF00BFBD467F
:101030005DF8047B704780B400AFFEE780B400AF7A
:10104000FEE780B400AFFEE780B400AFFEE780B4F7
:1010500000AF00BFBD465DF8047B704780B500AFB0
:10106000024801F039FC00BF80BD00BF0C700020B9
:1010700080B500AF024800F071FF00BF80BD00BF27
:101080000461002080B500AF024800F067FF00BF98
:1010900080BD00BF0461002080B500AF024804F0AD
:1010A00000FD00BF80BD00BFCC6F002080B582B0C6
:1010B00000AF0D4B1B681B6803F01003102B0CD105
:1010C00000237B60084B1B681B687B60064B1B681A
:1010D0005B687B607B6812F097FE034805F088F838
:1010E00000BF0837BD4680BD0C71002080B582B0BE
:1010F00000AF0D4B1B681B6803F01003102B0CD1C5
:1011000000237B60084B1B681B687B60064B1B68D9
:101110005B687B607B6812F077FE034805F068F837
:1011200000BF0837BD4680BD6C70002080B500AFA1
:10113000024801F0D1FB00BF80BD00BFAC700020B1
:1011400080B500AF024802F015FA00BF80BD00BFB5
:10115000688A002080B500AF024800F0FFFE00BFA3
:1011600080BD00BFDC60002080B500AF024800F009
:10117000F5FE00BF80BD00BFDC60002080B586B0FA
:1011800000AFF860B9607A6000237B610AE0AFF3DA
:1011900000800146BB685A1CBA60CAB21A707B69EB
:1011A00001337B617A697B689A42F0DB7B68184681
:1011B0001837BD4680BD80B586B000AFF860B96015
:1011C0007A6000237B6109E0BB685A1CBA601B7817
:1011D000184613F069FC7B6901337B617A697B688F
:1011E0009A42F1DB7B6818461837BD4680BD80B453
:1011F00083B000AF78604FF0FF3318460C37BD4620
:101200005DF8047B704780B483B000AF78603960CC
:101210003B684FF400525A60002318460C37BD4615
:101220005DF8047B704780B483B000AF7860012321
:1012300018460C37BD465DF8047B704780B485B016
:1012400000AFF860B9607A60002318461437BD46D5
:101250005DF8047B7047000080B485B000AF786013
:10126000114B1B68002B02D10F4B104A1A600E4B1A
:101270001B68FB600C4B1A687B6813446A469342F8
:1012800005D90B4B0C221A604FF0FF3306E0064BDA
:101290001A687B681344044A1360FB6818461437C5
:1012A000BD465DF8047B70471C020020609701205A
:1012B000B876012080B400AF084BD3F88830074AD5
:1012C00043F47003C2F88830044B4FF000629A6018
:1012D00000BFBD465DF8047B704700BF00ED00E035
:1012E00080B500AF114B124A1A60104B4FF4E13237
:1012F0005A600E4B00229A600C4B0022DA600B4BB6
:1013000000221A61094B0C225A61084B00229A6193
:10131000064B0022DA61054804F0A8FD0346002BC5
:1013200001D0FFF7F3FD00BF80BD00BF0C710020AE
:101330000010014080B500AF114B124A1A60104BEB
:101340004FF4E1325A600E4B00229A600C4B00229F
:10135000DA600B4B00221A61094B0C225A61084BD0
:1013600000229A61064B0022DA61054804F07EFDF6
:101370000346002B01D0FFF7C9FD00BF80BD00BFB1
:101380006C7000200048004080B58CB000AF7860E1
:1013900007F11C0300221A605A609A60DA601A6131
:1013A0007B681B68694A934263D10023BB61684B29
:1013B0005B6C674A43F010035364654B5B6C03F04E
:1013C0001003BB61BB6900237B61614B1B6B604AEF
:1013D00043F0010313635E4B1B6B03F001037B615E
:1013E0007B694FF4C063FB6102233B6201237B6294
:1013F0000323BB620723FB6207F11C031946554810
:1014000002F0E4FC544B554A1A60534B4FF0006213
:101410005A60514B00229A604F4B0022DA604E4BCB
:101420004FF480621A614C4B00225A614A4B0022F1
:101430009A61494B0022DA61474B00221A62464BFF
:1014400000225A62444801F0AFF80346002B01D055
:10145000FFF75CFD7B68404A5A633F4A7B689363B1
:1014600000220521252001F070F8252001F089F8DF
:1014700067E07B681B683A4A934262D100233B6174
:10148000334B1B6C324A43F480231364304B1B6C88
:1014900003F480233B613B690023FB602C4B1B6BF7
:1014A0002B4A43F002031363294B1B6B03F0020327
:1014B000FB60FB684FF44063FB6102233B62012346
:1014C0007B620323BB620723FB6207F11C031946FF
:1014D000244802F07BFC244B244A1A60224B4FF034
:1014E00000625A60204B00229A601F4B0022DA6093
:1014F0001D4B4FF480621A611B4B00225A611A4B3C
:1015000000229A61184B0022DA61174B00221A62FE
:10151000154B00225A62144801F046F80346002B8E
:1015200001D0FFF7F3FC7B680F4A5A630E4A7B68D1
:10153000936300220521272001F007F8272001F0FE
:1015400020F800BF3037BD4680BD00BF001001400D
:101550000038024000000240AC70002040640240AD
:1015600000480040000402400C7000202860024047
:10157000DFF834D0002103E00C4B5B5843500431BA
:101580000B480C4B42189A42F6D30B4A02E0002358
:1015900042F8043B094B9A42F9D3FFF78BFE14F053
:1015A00011F8FFF71BFC704700000220C08F0108F4
:1015B00000000020FC010020FC0100205C970120BD
:1015C000FEE7000080B500AF0E4B1B680D4A43F4E8
:1015D000007313600B4B1B680A4A43F4806313606B
:1015E000084B1B68074A43F480731360032000F024
:1015F000A1FF0020FFF7BEFCFFF790FC0023184678
:1016000080BD00BF003C024080B400AF064B1B7899
:101610001A46064B1B681344044A136000BFBD46BC
:101620005DF8047B704700BF080000204C7100206B
:1016300080B400AF034B1B681846BD465DF8047BC1
:10164000704700BF4C71002080B584B000AF786057
:10165000FFF7EEFFB8607B68FB60FB68B3F1FF3F0C
:1016600005D0094B1B781A46FB681344FB6000BF8A
:10167000FFF7DEFF0246BB68D31AFA689A42F7D832
:1016800000BF1037BD4680BD0800002080B584B083
:1016900000AF78607B68002B01D10123EDE07B680F
:1016A00093F82030DBB2002B02D17868FEF7D4FF2C
:1016B0007B681B681A687B681B6822F002021A604C
:1016C000FFF7B6FFF86012E0FFF7B2FF0246FB68D3
:1016D000D31A0A2B0BD97B685B6A43F400327B6810
:1016E0005A627B68052283F820200123C5E07B68CD
:1016F0001B685B6803F00203002BE5D17B681B6865
:101700001A687B681B6842F001021A60FFF790FFBD
:10171000F86012E0FFF78CFF0246FB68D31A0A2B31
:101720000BD97B685B6A43F400327B685A627B6842
:10173000052283F8202001239FE07B681B685B68FB
:1017400003F00103002BE5D07B681B7E012B08D141
:101750007B681B681A687B681B6842F080021A600D
:1017600007E07B681B681A687B681B6822F08002B0
:101770001A607B685B7E012B08D17B681B681A6846
:101780007B681B6842F040021A6007E07B681B68B8
:101790001A687B681B6822F040021A607B689B7E97
:1017A000012B08D17B681B681A687B681B6842F0B4
:1017B00020021A6007E07B681B681A687B681B6858
:1017C00022F020021A607B68DB7E012B08D17B6847
:1017D0001B681A687B681B6822F010021A6007E019
:1017E0007B681B681A687B681B6842F010021A60ED
:1017F0007B681B7F012B08D17B681B681A687B689C
:101800001B6842F008021A6007E07B681B681A68D0
:101810007B681B6822F008021A607B685B7F012BE3
:1018200008D17B681B681A687B681B6842F0040259
:101830001A6007E07B681B681A687B681B6822F0E7
:1018400004021A607B689A687B68DB681A437B68CD
:101850001B691A437B685B6942EA03017B685B682A
:101860005A1E7B681B680A43DA617B6800225A6251
:101870007B68012283F82020002318461037BD46DC
:1018800080BD000080B487B000AF786039607B68AD
:101890001B687B617B6893F82030FB74FB7C012B19
:1018A00003D0FB7C022B40F0BE80654B7B617B69E3
:1018B000D3F8003243F001027B69C3F800227B6950
:1018C000D3F8003223F47C527B69C3F800227B6991
:1018D000D3F800223B685B6A1B021A437B69C3F89A
:1018E00000223B685B6903F01F03012202FA03F345
:1018F000FB607B69D3F81C22FB68DB431A407B69E1
:10190000C3F81C223B68DB69002B23D17B69D3F829
:101910000C22FB68DB431A407B69C3F80C223B684E
:10192000DB6819043B685B689BB23A6852691943EB
:101930007B69483243F832103B689B6819043B6866
:101940001B689AB23B685B690A4379694833DB00DC
:101950000B445A603B68DB69012B22D17B69D3F8C9
:101960000C22FB681A437B69C3F80C223B681B6896
:1019700019043B685B689BB23A68526919437B69FA
:10198000483243F832103B689B6819043B68DB68B7
:101990009AB23B685B690A4379694833DB000B44C0
:1019A0005A603B689B69002B09D17B69D3F80422FC
:1019B000FB68DB431A407B69C3F8042207E07B69BC
:1019C000D3F80422FB681A437B69C3F804223B68FE
:1019D0001B69002B09D17B69D3F81422FB68DB4318
:1019E0001A407B69C3F8142207E07B69D3F81422FC
:1019F000FB681A437B69C3F814223B681B6A012BFE
:101A000007D17B69D3F81C22FB681A437B69C3F8B2
:101A10001C227B69D3F8003223F001027B69C3F8F2
:101A20000022002306E07B685B6A43F480227B6827
:101A30005A62012318461C37BD465DF8047B704787
:101A40000064004080B584B000AF78607B6893F894
:101A50002030DBB2012B2ED17B68022283F82020BC
:101A60007B681B681A687B681B6822F001021A6099
:101A7000FFF7DEFDF86012E0FFF7DAFD0246FB68D3
:101A8000D31A0A2B0BD97B685B6A43F400327B685C
:101A90005A627B68052283F82020012312E07B68CC
:101AA0001B685B6803F00103002BE5D17B68002213
:101AB0005A62002306E07B685B6A43F400227B687D
:101AC0005A62012318461037BD4680BD80B489B0E4
:101AD00000AFF860B9607A603B60FB6893F8203033
:101AE000FB77FB681B689B68BB61FB7F012B03D006
:101AF000FB7F022B40F0B880BB6903F08063002BB2
:101B00000AD1BB6903F00063002B05D1BB6903F068
:101B10008053002B00F0A080BB691B0E03F0030371
:101B20007B617B69022B07D9FB685B6A43F4000287
:101B3000FB685A6201239EE001227B699A403B6860
:101B40001A60BB689B68002B0DD1BB681B685A05E7
:101B5000BB68DB68F96809681A437B6918331B01A5
:101B60000B441A600FE0BB685B68DA00BB689B68D7
:101B70001A43BB68DB68F96809681A437B69183344
:101B80001B010B441A60FB681968BB681A697B6902
:101B900018331B010B4404331A60BB681B7D012BF7
:101BA00011D1FB681A687B6918331B011344043395
:101BB0001B68FA68116843F480727B6918331B0153
:101BC0000B4404331A607B6807331B781A067B6862
:101BD00006331B781B041A437B6805331B781B02F2
:101BE00013437A68043212781046FA68116843EA9F
:101BF00000027B691B010B4403F5C6731A607B6806
:101C000003331B781A067B6802331B781B041A43C4
:101C10007B6801331B781B0213437A6812781046E5
:101C2000FA68116843EA00027B691B010B4403F563
:101C3000C4731A60FB681A687B6918331B0113446C
:101C40001B68FA68116843F001027B6918331B01B5
:101C50000B441A6000230EE0FB685B6A43F4001239
:101C6000FB685A62012306E0FB685B6A43F480224A
:101C7000FB685A62012318462437BD465DF8047B91
:101C8000704780B485B000AF78600023FB607B684C
:101C900093F82030FB72FB7A012B02D0FB7A022BE7
:101CA0001DD17B681B689B6803F08063002B02D00A
:101CB000FB680133FB607B681B689B6803F0006373
:101CC000002B02D0FB680133FB607B681B689B68BC
:101CD00003F08053002B02D0FB680133FB60FB68EC
:101CE00018461437BD465DF8047B704780B487B052
:101CF00000AFF860B9607A603B60FB6893F8203011
:101D0000FB75FB7D012B03D0FB7D022B40F0F380A4
:101D1000BB68002B0ED1FB681B68DB6803F0030374
:101D2000002B16D1FB685B6A43F40012FB685A6211
:101D30000123E7E0FB681B681B6903F00303002B2A
:101D400007D1FB685B6A43F40012FB685A62012307
:101D5000D8E0FB681A68BB681B331B0113441B687F
:101D600003F004027B689A607B689B68002B0CD1AF
:101D7000FB681A68BB681B331B0113441B685B0DAF
:101D8000C3F30A027B681A600BE0FB681A68BB6841
:101D90001B331B0113441B68DB0823F060427B6884
:101DA0005A60FB681A68BB681B331B0113441B682D
:101DB00003F002027B68DA60FB681A68BB681B33B9
:101DC0001B01134404331B6803F00F027B681A6184
:101DD000FB681A68BB681B331B01134404331B6880
:101DE0001B0ADAB27B689A61FB681A68BB681B330E
:101DF0001B01134404331B681B0C9AB27B685A61A5
:101E0000FB681A68BB681B01134403F5DC731B688D
:101E1000DAB23B681A70FB681A68BB681B0113448E
:101E200003F5DC731B681A0A3B680133D2B21A70DF
:101E3000FB681A68BB681B01134403F5DC731B685D
:101E40001A0C3B680233D2B21A70FB681A68BB687E
:101E50001B01134403F5DC731B681A0E3B68033344
:101E6000D2B21A70FB681A68BB681B01134403F5F1
:101E7000DE731A683B680433D2B21A70FB681A68C2
:101E8000BB681B01134403F5DE731B681A0A3B6829
:101E90000533D2B21A70FB681A68BB681B01134481
:101EA00003F5DE731B681A0C3B680633D2B21A7056
:101EB000FB681A68BB681B01134403F5DE731B68DB
:101EC0001A0E3B680733D2B21A70BB68002B08D1D8
:101ED000FB681B68DA68FB681B6842F02002DA6066
:101EE00007E0FB681B681A69FB681B6842F0200268
:101EF0001A61002306E0FB685B6A43F48022FB68FA
:101F00005A62012318461C37BD465DF8047B7047B2
:101F100080B485B000AF786039607B6893F820307A
:101F2000FB73FB7B012B02D0FB7B022B09D17B686F
:101F30001B6859697B681B683A680A435A61002329
:101F400006E07B685B6A43F480227B685A62012367
:101F500018461437BD465DF8047B704780B58AB0DB
:101F600000AF786000237B627B681B685B693B6223
:101F70007B681B685B68FB617B681B689B68BB6157
:101F80007B681B68DB687B617B681B681B693B6146
:101F90007B681B689B69FB603B6A03F00103002BB5
:101FA0007CD0BB6903F00103002B23D07B681B6846
:101FB00001229A60BB6903F00203002B03D078680A
:101FC00000F07DF916E0BB6903F00403002B04D098
:101FD0007B6A43F400637B620CE0BB6903F0080397
:101FE000002B04D07B6A43F480537B6202E0786864
:101FF00000F083F9BB6903F48073002B24D07B6865
:102000001B684FF480729A60BB6903F40073002B65
:1020100003D0786800F05DF916E0BB6903F48063D3
:10202000002B04D07B6A43F400537B620CE0BB6955
:1020300003F40063002B04D07B6A43F480437B628B
:1020400002E0786800F063F9BB6903F48033002B89
:1020500024D07B681B684FF480329A60BB6903F41C
:102060000033002B03D0786800F03DF916E0BB691F
:1020700003F48023002B04D07B6A43F400437B628B
:102080000CE0BB6903F40023002B04D07B6A43F40B
:1020900080337B6202E0786800F043F93B6A03F02A
:1020A0000803002B0CD07B6903F01003002B07D032
:1020B0007B6A43F400737B627B681B681022DA60E2
:1020C0003B6A03F00403002B0BD07B6903F0080389
:1020D000002B06D07B681B680822DA60786800F065
:1020E0002AF93B6A03F00203002B09D07B681B68C6
:1020F000DB6803F00303002B02D0786811F0AEFE1A
:102100003B6A03F04003002B0CD03B6903F0100343
:10211000002B07D07B6A43F480637B627B681B687B
:1021200010221A613B6A03F02003002B0BD03B699D
:1021300003F00803002B06D07B681B6808221A6195
:10214000786800F00CF93B6A03F01003002B09D00B
:102150007B681B681B6903F00303002B02D07868BF
:1021600000F0F3F83B6A03F40033002B0BD0FB695B
:1021700003F01003002B06D07B681B6810225A6006
:10218000786800F0F6F83B6A03F48033002B0BD03C
:10219000FB6903F00803002B06D07B681B6808224C
:1021A0005A60786800F0EFF83B6A03F40043002BB4
:1021B00075D0FB6903F00403002B6CD03B6A03F479
:1021C0008073002B08D0FB6803F00103002B03D0C1
:1021D0007B6A43F001037B623B6A03F40073002BCC
:1021E00008D0FB6803F00203002B03D07B6A43F0A6
:1021F00002037B623B6A03F48063002B08D0FB6818
:1022000003F00403002B03D07B6A43F004037B62DA
:102210003B6A03F40063002B3DD0FB6803F07003BE
:10222000002B38D0FB6803F07003302B17D0302B15
:1022300004D8102B09D0202B0CD024E0502B18D020
:10224000602B1BD0402B0FD01DE07B6A43F00803AE
:102250007B6218E07B6A43F010037B6213E07B6AC9
:1022600043F020037B620EE07B6A43F040037B6215
:1022700009E07B6A43F080037B6204E07B6A43F4FD
:1022800080737B6200BF7B681B689A697B681B68F0
:1022900022F070029A617B681B6804225A607B6A94
:1022A000002B08D07B685A6A7B6A1A437B685A62A3
:1022B000786800F072F800BF2837BD4680BD80B452
:1022C00083B000AF786000BF0C37BD465DF8047B7B
:1022D000704780B483B000AF786000BF0C37BD4654
:1022E0005DF8047B704780B483B000AF786000BFB6
:1022F0000C37BD465DF8047B704780B483B000AFF7
:10230000786000BF0C37BD465DF8047B704780B431
:1023100083B000AF786000BF0C37BD465DF8047B2A
:10232000704780B483B000AF786000BF0C37BD4603
:102330005DF8047B704780B483B000AF786000BF65
:102340000C37BD465DF8047B704780B483B000AFA6
:10235000786000BF0C37BD465DF8047B704780B4E1
:1023600083B000AF786000BF0C37BD465DF8047BDA
:10237000704780B483B000AF786000BF0C37BD46B3
:102380005DF8047B704780B483B000AF786000BF15
:102390000C37BD465DF8047B704780B483B000AF56
:1023A000786000BF0C37BD465DF8047B70470000C5
:1023B00080B485B000AF78607B6803F00703FB60F2
:1023C0000C4BDB68BB60BA684FF6FF031340BB6081
:1023D000FB681A02BB68134343F0BF6343F4003346
:1023E000BB60044ABB68D36000BF1437BD465DF8CC
:1023F000047B704700ED00E080B400AF044BDB6865
:102400001B0A03F007031846BD465DF8047B7047BE
:1024100000ED00E080B483B000AF0346FB7197F994
:102420000730002B0BDBFB7903F01F02074997F9FC
:1024300007305B09012000FA02F241F8232000BFB7
:102440000C37BD465DF8047B704700BF00E100E03B
:1024500080B483B000AF03463960FB7197F9073051
:10246000002B0ADB3B68DAB20C4997F907301201FE
:10247000D2B20B4483F800230AE03B68DAB2084981
:10248000FB7903F00F03043B1201D2B20B441A761E
:1024900000BF0C37BD465DF8047B704700E100E0EB
:1024A00000ED00E080B489B000AFF860B9607A60F8
:1024B000FB6803F00703FB61FB69C3F10703042B0F
:1024C00028BF0423BB61FB690433062B02D9FB69D7
:1024D000033B00E000237B614FF0FF32BB6902FA4F
:1024E00003F3DA43BB681A407B699A404FF0FF312F
:1024F0007B6901FA03F3D9437B680B401343184609
:102500002437BD465DF8047B7047000080B400AFFF
:10251000BFF34F8F054BDB6803F4E0620349044BC4
:102520001343CB60BFF34F8F00BFFDE700ED00E02A
:102530000400FA0580B582B000AF78607868FFF7D4
:1025400037FF00BF0837BD4680BD80B586B000AFFD
:102550000346B9607A60FB7300237B61FFF74CFF91
:1025600078617A68B9687869FFF79CFF024697F945
:102570000F3011461846FFF76BFF00BF1837BD46F6
:1025800080BD80B582B000AF0346FB7197F907307C
:102590001846FFF73FFF00BF0837BD4680BD80B536
:1025A00000AFFFF7B3FF000080B586B000AF7860E2
:1025B00000237B61FFF73CF838617B68002B01D179
:1025C000012399E07B68002283F834207B68022293
:1025D00083F835207B681B681A687B681B6822F0CB
:1025E00001021A600FE0FFF723F802463B69D31A95
:1025F000052B08D97B6820225A657B68032283F863
:102600003520032378E07B681B681B6803F0010317
:10261000002BE8D17B681B681B687B617A69384BAB
:1026200013407B617B685A687B689B681A437B68B0
:10263000DB681A437B681B691A437B685B691A4332
:102640007B689B691A437B68DB691A437B681B6A5A
:1026500013437A6913437B617B685B6A042B07D160
:102660007B68DA6A7B681B6B13437A6913437B616F
:102670007B681B687A691A607B681B685B697B6191
:102680007B6923F007037B617B685B6A7A6913438C
:102690007B617B685B6A042B17D17B689B6A7A69D4
:1026A00013437B617B68DB6A002B0ED0786800F0F7
:1026B00001FB0346002B08D07B6840225A657B68EB
:1026C000012283F83520012316E07B681B687A69B4
:1026D0005A61786800F0B8FA0346FB607B68DB6DEE
:1026E0003F229A40FB689A607B6800225A657B68AB
:1026F000012283F83520002318461837BD4680BDD7
:102700003F8010F080B586B000AFF860B9607A60A5
:102710003B600023FB75FB689B6D3B61FB6893F896
:102720003430012B01D1022340E0FB68012283F801
:102730003420FB6893F83530DBB2012B2FD1FB68D6
:10274000022283F83520FB6800225A653B687A68CC
:10275000B968F86800F04AFAFB68DB6D3F229A40DE
:102760003B699A60FB681B681A68FB681B6842F04B
:1027700016021A60FB681B6C002B07D0FB681B68F5
:102780001A68FB681B6842F008021A60FB681B6845
:102790001A68FB681B6842F001021A6005E0FB68DA
:1027A000002283F834200223FB75FB7D184618377E
:1027B000BD4680BD80B584B000AF78607B689B6DFE
:1027C000FB60FEF735FFB8607B6893F83530DBB20D
:1027D000022B08D07B6880225A657B68002283F830
:1027E0003420012352E07B681B681A687B681B68F1
:1027F00022F016021A607B681B685A697B681B68A6
:1028000022F080025A617B681B6C002B03D17B682D
:102810009B6C002B07D07B681B681A687B681B6861
:1028200022F008021A607B681B681A687B681B68C4
:1028300022F001021A6013E0FEF7FAFE0246BB68BE
:10284000D31A052B0CD97B6820225A657B6800229D
:1028500083F834207B68032283F83520032315E0B6
:102860007B681B681B6803F00103002BE4D17B68C5
:10287000DB6D3F229A40FB689A607B68002283F8F8
:1028800034207B68012283F8352000231846103756
:10289000BD4680BD80B483B000AF78607B6893F89C
:1028A0003530DBB2022B04D07B6880225A650123CD
:1028B0000CE07B68052283F835207B681B681A686A
:1028C0007B681B6822F001021A60002318460C374F
:1028D000BD465DF8047B704780B586B000AF786078
:1028E0000023BB60924B1B68924AA2FB03239B0A06
:1028F0007B617B689B6D3B613B691B68FB607B6810
:10290000DB6D08229A40FB681340002B1AD07B68CD
:102910001B681B6803F00403002B13D07B681B6843
:102920001A687B681B6822F004021A607B68DB6D02
:1029300008229A403B699A607B685B6D43F0010214
:102940007B685A657B68DB6D01229A40FB68134007
:10295000002B12D07B681B685B6903F08003002B9F
:102960000BD07B68DB6D01229A403B699A607B68E3
:102970005B6D43F002027B685A657B68DB6D042265
:102980009A40FB681340002B12D07B681B681B68C1
:1029900003F00203002B0BD07B68DB6D04229A400E
:1029A0003B699A607B685B6D43F004027B685A6503
:1029B0007B68DB6D10229A40FB681340002B43D0EC
:1029C0007B681B681B6803F00803002B3CD07B6806
:1029D000DB6D10229A403B699A607B681B681B681C
:1029E00003F48023002B18D07B681B681B6803F45A
:1029F0000023002B08D17B681B6C002B24D07B6844
:102A00001B6C786898471FE07B689B6C002B1BD081
:102A10007B689B6C7868984716E07B681B681B682E
:102A200003F48073002B07D17B681B681A687B68EE
:102A30001B6822F008021A607B681B6C002B03D015
:102A40007B681B6C786898477B68DB6D20229A4016
:102A5000FB681340002B00F08E807B681B681B68AE
:102A600003F01003002B00F086807B68DB6D2022D2
:102A70009A403B699A607B6893F83530DBB2052B4E
:102A800036D17B681B681A687B681B6822F01602C7
:102A90001A607B681B685A697B681B6822F0800299
:102AA0005A617B681B6C002B03D17B689B6C002BED
:102AB00007D07B681B681A687B681B6822F00802D5
:102AC0001A607B68DB6D3F229A403B699A607B68A5
:102AD000002283F834207B68012283F835207B684C
:102AE0001B6D002B7DD07B681B6D7868984778E064
:102AF0007B681B681B6803F48023002B1CD07B6859
:102B00001B681B6803F40023002B08D17B685B6CF7
:102B1000002B30D07B685B6C786898472BE07B6833
:102B2000DB6B002B27D07B68DB6B7868984722E053
:102B300000000020B5814E1B7B681B681B6803F4F6
:102B40008073002B0FD17B681B681A687B681B6839
:102B500022F010021A607B68002283F834207B6820
:102B6000012283F835207B68DB6B002B03D07B6868
:102B7000DB6B786898477B685B6D002B32D07B6895
:102B80005B6D03F00103002B22D07B68052283F8E4
:102B900035207B681B681A687B681B6822F001027D
:102BA0001A60BB680133BB607A699A4207D37B68BD
:102BB0001B681B6803F00103002BF2D100E000BF8B
:102BC0007B68002283F834207B68012283F835205B
:102BD0007B68DB6C002B05D07B68DB6C78689847E2
:102BE00000E000BF1837BD4680BD00BF80B485B08F
:102BF00000AFF860B9607A603B60FB681B681A68D8
:102C0000FB681B6822F480221A60FB681B683A6824
:102C10005A60FB689B68402B08D1FB681B687A6888
:102C20009A60FB681B68BA68DA6007E0FB681B689B
:102C3000BA689A60FB681B687A68DA6000BF14376C
:102C4000BD465DF8047B704780B485B000AF786006
:102C50007B681B68DBB2103B144AA2FB03231B09F1
:102C6000FB60134AFB6813441B781A467B68DA65DD
:102C7000FB68032B09D97B681B6823F47F7323F05F
:102C800003031A1D7B689A6507E07B681B6823F4C1
:102C90007F7323F003037A6893657B689B6D184606
:102CA0001437BD465DF8047B704700BFABAAAAAAE3
:102CB000C888010880B485B000AF78600023FB733A
:102CC0007B689B6ABB607B689B69002B1FD1BB68DC
:102CD000032B55D801A252F823F000BFED2C0008B9
:102CE000FF2C0008ED2C0008812D00087B68DB6AB2
:102CF00003F08073002B45D00123FB7342E07B6817
:102D0000DB6AB3F1C07F3FD10123FB733CE07B68FA
:102D10009B69B3F5005F21D1BB68032B36D801A2B4
:102D200052F823F0352D00083B2D0008352D000802
:102D30004D2D00080123FB732FE07B68DB6A03F055
:102D40008073002B24D00123FB7321E07B68DB6AB6
:102D5000B3F1C07F1ED10123FB731BE0BB68022BC4
:102D600002D9032B03D018E00123FB7315E07B6825
:102D7000DB6A03F08073002B0ED00123FB730BE0A2
:102D800000BF0AE000BF08E000BF06E000BF04E0AB
:102D900000BF02E000BF00E000BFFB7B1846143715
:102DA000BD465DF8047B704780B588B000AF7860A1
:102DB0000023FB610023FB60AA4BBB6100237B6106
:102DC00000233B617B68002B01D1012385E17B68F7
:102DD00093F84430DBB2002B06D17B68002283F8E5
:102DE0004520786804F0E4F90023BB609E4B5B6CDF
:102DF0009D4A43F4804353649B4B5B6C03F48043D4
:102E0000BB60BB68994B5B68984A23F4000353602E
:102E1000964B5A687B681B6A944913434B607B68E6
:102E20001B6803F580531A687B681B6842F0010237
:102E300003F580531A60FEF7FBFB786111E0FEF7A3
:102E4000F7FB02467B69D31AB3F5FA7F09D97B6891
:102E5000032283F844207B68002283F84520032363
:102E60003BE17B681B6803F580531B6803F001039B
:102E7000002BE4D17B681B681B69FB61FB6923F0B5
:102E80001C03FB6102F04EFDB861BB69784A9342B6
:102E900008D9BB69774A934204D8FB6943F0080319
:102EA000FB6127E0BB69734A934208D9BB69724A48
:102EB000934204D8FB6943F00C03FB611AE0BB6941
:102EC0006D4A934203D9BB696C4A934211D9BB69DD
:102ED0006A4A934208D9BB69694A934204D8FB699C
:102EE00043F00403FB6105E0FB6943F01003FB6161
:102EF00000E000BF7B681B68FA691A614FF400426A
:102F00000021786800F019FC0346002B0BD0012348
:102F10003B613969786800F0A5FC7B68012283F881
:102F200044200123D9E0FF20FEF78EFB7B685B681D
:102F3000002B00F0A780FEF77BFB786107F10C0304
:102F40001A460121786800F090FBFEF771FB0246FB
:102F50007B69D31A41F2883293420FD901233B6136
:102F60003969786800F07EFC7B68012283F8442090
:102F70007B68002283F845200323AEE0FB6803F062
:102F80000403002BDAD04FF480520021786800F05F
:102F9000D4FB0346002B0BD001233B6139697868D1
:102FA00000F060FC7B68012283F84420012394E058
:102FB000FEF73EFB786107F10C031A4601217868A1
:102FC00000F053FBFEF734FB02467B69D31A41F253
:102FD000883293420FD901233B613969786800F048
:102FE00041FC7B68012283F844207B68002283F83F
:102FF0004520032371E0FB6803F02003002BDAD0A7
:1030000007F10C031A461F21786800F02EFB0346D7
:10301000002B0BD001233B613969786800F022FC5A
:103020007B68012283F84420012356E0FB6803F00B
:103030001003002B04D07B684FF40062DA6002E0DA
:103040007B680022DA60FB6803F00403002B03D0E6
:103050007B6800229A6037E07B684FF480429A6078
:1030600032E000BF0087930300380240003801407F
:10307000FF2C3101BF0E1602FF869303FFE0F5051A
:103080007FD1F0087B68DB68DB089AB27B689B68BD
:103090005B089BB213439BB21A460021786800F08C
:1030A0004CFB0346002B0BD001233B613969786848
:1030B00000F0D8FB7B68012283F8442001230CE058
:1030C00040F6FF70FEF7C0FA3969786800F0CAFB75
:1030D0007B68012283F84420002318462037BD4630
:1030E00080BD00BF80B487B000AFF860B9607A607F
:1030F0003B6000237B61FB6893F84530012B01D1D5
:10310000022352E0FB68012283F84520FB6802227B
:1031100083F84420FB68BA68DA6200237B6130E000
:103120007B695B01BA6813443B613B694FF48012D1
:103130001A607B6940F2F45202FB03F37A6813448D
:103140001A463B699A60FB68DB69002B05D13B6935
:103150001B6843F440023B691A603B68013B7A6993
:103160009A4208D27B6901335B01BA6813441A465C
:103170003B69DA6002E0BA683B69DA607B69013377
:103180007B617A693B689A42CAD3FB681B68BA685C
:1031900003F5805310331A60FB68012283F8442042
:1031A000FB68002283F84520002318461C37BD46E3
:1031B0005DF8047B704780B487B000AFF860B960F9
:1031C0007A603B6000237B61FB6893F84530012BFC
:1031D00001D1022356E0FB68012283F84520FB68F9
:1031E000022283F84420FB68BA689A6200237B615C
:1031F00034E07B695B01BA6813443B613B694FF083
:1032000000421A603B6944F2F4525A607B6940F212
:10321000F45202FB03F37A6813441A463B699A603E
:10322000FB689B69012B05D13B695B6823F0004279
:103230003B695A603B68013B7A699A4208D27B69D4
:1032400001335B01BA6813441A463B69DA6002E055
:10325000BA683B69DA607B6901337B617A693B68F4
:103260009A42C6D3FB681B68BA6803F580530C33D7
:103270001A60FB68012283F84420FB68002283F86F
:103280004520002318461C37BD465DF8047B704777
:1032900080B487B000AF7860396000237B61002381
:1032A000FB6000233B617B6893F84530012B01D123
:1032B0000223CDE07B68012283F845207B6802224F
:1032C00083F844203B68002B09D17B68012283F8F6
:1032D00044207B68002283F845200123B8E07B6806
:1032E000DB6A1B68002B09DA7B68122283F8442012
:1032F0007B68002283F845200123A9E03B6840F267
:10330000F452934215D93B68544AA2FB03239B0A0B
:103310007B613A68514BA3FB02139B0A40F2F451C4
:1033200001FB03F3D31A002B05D07B6901337B61CA
:1033300001E001237B617B69012B1CD17B68DB6A87
:103340001A687B68DB6A42F040521A607B68DB6A6D
:103350003A68C2F30C025A607B68DB6A1A687B68C1
:10336000DB6A42F000421A607B68DB6ADB681A465F
:103370007B68DA624BE000233B6144E07B68DB6AF8
:103380001A687B68DB6A22F040521A603B69002BA6
:1033900007D17B68DB6A1A687B68DB6A42F080527F
:1033A0001A607B68DB6A40F2F4525A607B69013B29
:1033B0003A699A4216D17B68DB6A1A687B68DB6AD5
:1033C00042F000521A607B69254A02FB03F23B6817
:1033D000134403F2F453FB607B68DB6AFA68C2F3C0
:1033E0000C025A607B68DB6A1A687B68DB6A42F011
:1033F00000421A607B68DB6ADB681A467B68DA6227
:103400003B6901333B613A697B699A42B6D37B6879
:103410001B6803F5805314331B6803F00403002B6F
:103420000DD07B681B6803F58053143304221A60A7
:103430007B681B6803F58053043300221A607B68A5
:10344000012283F844207B68002283F84520002372
:1034500018461C37BD465DF8047B70470BB002ACC4
:103460000CFAFFFF80B485B000AF78600023FB60EA
:103470007B6893F84530012B01D1022374E07B680F
:10348000012283F845207B68022283F844205AE019
:10349000FB680133FB607B689B6A1B6803F4407325
:1034A000B3F5007F0DD17B689A6A7B681A637B68ED
:1034B00001229A637B689B6ADB681A467B689A6282
:1034C00041E07B689B6A1B6803F44073002B0BD1BF
:1034D0007B689B6B5A1C7B689A637B689B6ADB6882
:1034E0001A467B689A622EE07B689A6A7B685A6308
:1034F0007B689B6B5A1C7B689A637B689B6B012B78
:1035000003D17B689A6A7B681A637B689B6A1B6835
:103510001B0CC3F30D031A1F7B68DA637B681B6BFC
:103520009A687B681A647B689B6ADB681A467B68CA
:103530009A627B68012283F844207B68002283F82A
:103540004520002310E07B689B6A1B68002B02DB90
:10355000FB68032B9CD97B68012283F844207B689D
:10356000002283F84520012318461437BD465DF834
:10357000047B704780B582B000AF78607B681B68C1
:1035800003F5805314331B6803F04003402B12D122
:10359000786803F0BBFE7B681B6803F58053143327
:1035A00040221A607B68012283F844207B68002255
:1035B00083F845201BE07B681B6803F580531433B8
:1035C0001B6803F00103012B11D1786800F039F872
:1035D0007B681B6803F58053143301221A607B68F3
:1035E000012283F844207B68002283F845207B6811
:1035F0001B6803F5805314334FF480321A607B68E4
:103600001B6803F5805314331B6803F40043B3F5C0
:10361000004F12D1786800F01EF87B681B6803F534
:10362000805314334FF400421A607B68012283F800
:1036300044207B68002283F8452000BF0837BD4640
:1036400080BD80B483B000AF786000BF0C37BD464A
:103650005DF8047B704780B483B000AF786000BF32
:103660000C37BD465DF8047B704780B586B000AF6F
:10367000F8600B467A607B8100237B6100233B610D
:10368000FB6893F84430DBB2822B01D1022350E077
:10369000FB68822283F84420FB681B681B697B61FE
:1036A0007B6903F01C037B61FB681B8ADB029BB216
:1036B0007A6913437B617B899B0103F4F8637A6920
:1036C00013437B617B6923F002037B617B6943F0D9
:1036D00001037B61FB681B687A691A61FDF7A8FF2B
:1036E000386115E0FDF7A4FF02463B69D31AB3F534
:1036F000803F09D3FB68012283F84420FB68002245
:1037000083F84520032314E0FB681B681B697B6179
:103710007B6903F00103002BE4D1FB681B685B6944
:103720009BB21A467B681A60FB68012283F844202A
:10373000002318461837BD4680BD80B586B000AF5F
:10374000F8600B467A607B8100237B6100233B613C
:10375000FB6893F84430DBB2422B01D102234EE0E8
:10376000FB68422283F84420FB681B681B697B616D
:103770007B6903F01C037B61FB681B8ADB029BB245
:103780007A6913437B617B899B0103F4F8637A694F
:1037900013437B617B6943F002037B617B6943F0E8
:1037A00001037B617B689AB2FB681B685A61FB6806
:1037B0001B687A691A61FDF73BFF386115E0FDF778
:1037C00037FF02463B69D31AB3F5803F09D3FB6844
:1037D000012283F84420FB68002283F8452003235C
:1037E0000DE0FB681B681B697B617B6903F00103CB
:1037F000002BE4D1FB68012283F844200023184603
:103800001837BD4680BD80B582B000AF78607B6858
:1038100093F84530012B01D102231FE07B68012280
:1038200083F845207B68022283F84420786800F002
:103830001BFA786800F035FA786800F07FFA78684B
:1038400000F04CFA786800F061FA7B68012283F896
:1038500044207B68002283F845200023184608375F
:10386000BD4680BD80B5B0B000AF78603960002340
:10387000C7F8BC303B68002B07D07B684FF4006270
:10388000DA607B684FF480429A600023BB640023B7
:10389000FB6400233B6500237B650023BB6500239D
:1038A000FB657B68DB69002B03D14FF480633B66CB
:1038B00001E000233B664FF400737B660023BB6688
:1038C0000023FB6600233B6700237B670023BB6765
:1038D0004023FB670023C7F880300023C7F88430FB
:1038E0000023C7F888300023C7F88C300023C7F8BE
:1038F00090300023C7F894300023C7F89830002395
:10390000C7F89C308023C7F8A0300023C7F8A43044
:103910000023C7F8A8300023C7F8AC300023C7F84D
:10392000B0300023C7F8B4300023C7F8B8307B6844
:103930001B681B68C7F8BC30D7F8BC20AC4B1340E1
:10394000C7F8BC30BA6CFB6C1A433B6D1A437B6DF5
:103950001A437B689B681A43BB6D1A43FB6D1A437D
:103960007B68DB681A433B6E1A437B6E1A43BB6E5F
:103970001A43FB6E1A433B6F1343D7F8BC20134323
:10398000C7F8BC307B681B68D7F8BC201A607B681E
:103990001B681B68C7F8BC300120FDF755FE7B682B
:1039A0001B68D7F8BC201A607A6FBB6F1A43FB6F95
:1039B0001A43D7F880301A43D7F884301A43D7F81F
:1039C00088301A43D7F88C3042EA0301D7F89020A8
:1039D0007B681B680A435A607B681B685B68C7F892
:1039E000BC300120FDF730FE7B681B68D7F8BC2097
:1039F0005A607B681B68D7F894209A607B681B68C4
:103A0000D7F89820DA607B681B689B69C7F8BC30E0
:103A1000D7F8BC204FF641731340C7F8BC30D7F835
:103A20009C301A04D7F8A0301A43D7F8A4301A43B0
:103A3000D7F8A8301A43D7F8AC301A43D7F8B030CB
:103A40001343D7F8BC201343C7F8BC307B681B680E
:103A5000D7F8BC209A617B681B689B69C7F8BC30AB
:103A60000120FDF7F1FD7B681B68D7F8BC209A6147
:103A7000D7F8B410D7F8B8207B681B680A43DA611E
:103A80007B681B68DB69C7F8BC300120FDF7DCFDF3
:103A90007B681B68D7F8BC20DA610023BB604FF05D
:103AA0000073FB6000233B614FF400137B61002334
:103AB000BB610023FB6100233B6200237B62042384
:103AC000BB624FF00073FB624FF480333B634FF4F3
:103AD00080037B634FF40053BB638023FB630023AD
:103AE0003B6400237B647B681B6803F580531833B9
:103AF0001B68C7F8BC30D7F8BC203E4B1340C7F852
:103B0000BC30BA68FB681A433B691A437B691A43A5
:103B1000BB691A43FB691A433B6A1A437B6A1A431F
:103B2000BB6A1343D7F8BC201343C7F8BC307B688B
:103B30001B6803F580531833D7F8BC201A607B68E4
:103B40001B6803F5805318331B68C7F8BC3001208D
:103B5000FDF77AFD7B681B6803F580531833D7F8AF
:103B6000BC201A60FA6A3B6B1A437B6B1A43BB6B2F
:103B70001A43FB6B1A433B6C9B001A437B6C1A4342
:103B80007B681B6842F4000203F580531A607B686F
:103B90001B6803F580531B68C7F8BC300120FDF794
:103BA00053FD7B681B6803F58053D7F8BC201A606F
:103BB0007B689B69012B0FD17B681B6803F58053E1
:103BC0001C331A687B681B6842F4803242F0400262
:103BD00003F580531C331A607B685B691A46002129
:103BE000786800F009F800BFC037BD4680BD00BF4F
:103BF0000F8120FF233FDEF880B487B000AFF8606C
:103C0000B9607A607B6805331B781B027A680432DE
:103C1000127813437B61BA68114B13441A467B69CF
:103C200013607B6803331B781A067B6802331B78AA
:103C30001B041A437B6801331B781B0213437A6809
:103C4000127813437B61BA68064B13441A467B69AA
:103C5000136000BF1C37BD465DF8047B704700BF92
:103C6000408002404480024080B584B000AF78605C
:103C70000023FB607B681B681A687B681B6842F046
:103C800008021A607B681B681B68FB60012000F05B
:103C90007FF87B681B68FA681A6000BF1037BD4662
:103CA00080BD80B584B000AF78600023FB607B6886
:103CB0001B681A687B681B6842F004021A607B6804
:103CC0001B681B68FB60012000F062F87B681B68C2
:103CD000FA681A6000BF1037BD4680BD80B483B05B
:103CE00000AF78607B681B6803F5805318331A684F
:103CF0007B681B6842F4005203F5805318331A6046
:103D000000BF0C37BD465DF8047B704780B483B0BC
:103D100000AF78607B681B6803F5805318331A681E
:103D20007B681B6842F0020203F5805318331A6067
:103D300000BF0C37BD465DF8047B704780B584B08A
:103D400000AF78600023FB607B681B6803F580533D
:103D500018331A687B681B6842F4801203F580539D
:103D600018331A607B681B6803F5805318331B688F
:103D7000FB60012000F00CF87B681B68FA6803F513
:103D8000805318331A6000BF1037BD4680BD000055
:103D900080B485B000AF78600A4B1B680A4AA2FB6A
:103DA00003235B0A7A6802FB03F3FB6000BFFB6836
:103DB0005A1EFA60002BF9D100BF1437BD465DF8DA
:103DC000047B704700000020D34D621080B489B09E
:103DD00000AF7860396000237B6100233B610023E2
:103DE000BB610023FB616BE10122FB6902FA03F373
:103DF0007B613B681B687A6913403B613A697B6968
:103E00009A4240F05A813B685B68012B0BD03B68BB
:103E10005B68022B07D03B685B68112B03D03B68C3
:103E20005B68122B30D17B689B68BB61FB695B00D0
:103E3000032202FA03F3DB43BA691340BB613B6818
:103E4000DA68FB695B0002FA03F3BA691343BB61EA
:103E50007B68BA699A607B685B68BB610122FB6919
:103E600002FA03F3DB43BA691340BB613B685B684A
:103E70001B0903F00102FB6902FA03F3BA69134359
:103E8000BB617B68BA695A607B68DB68BB61FB69B0
:103E90005B00032202FA03F3DB43BA691340BB6100
:103EA0003B689A68FB695B0002FA03F3BA69134343
:103EB000BB617B68BA69DA603B685B68022B03D040
:103EC0003B685B68122B23D1FB69DA087B680832F8
:103ED00053F82230BB61FB6903F007039B000F22FC
:103EE00002FA03F3DB43BA691340BB613B681A690A
:103EF000FB6903F007039B0002FA03F3BA6913435B
:103F0000BB61FB69DA087B680832B96943F82210A3
:103F10007B681B68BB61FB695B00032202FA03F349
:103F2000DB43BA691340BB613B685B6803F0030283
:103F3000FB695B0002FA03F3BA691343BB617B6858
:103F4000BA691A603B685B6803F08053002B00F08D
:103F5000B4800023FB605F4B5B6C5E4A43F480439C
:103F600053645C4B5B6C03F48043FB60FB685A4A10
:103F7000FB699B08023352F82330BB61FB6903F0F5
:103F800003039B000F2202FA03F3DB43BA691340D9
:103F9000BB617B68514A93422BD07B68504A934265
:103FA00025D07B684F4A93421FD07B684E4A93428C
:103FB00019D07B684D4A934213D07B684C4A934298
:103FC0000DD07B684B4A934207D07B684A4A9342A4
:103FD00001D107230EE008230CE006230AE00523A5
:103FE00008E0042306E0032304E0022302E00123A7
:103FF00000E00023FA6902F0030292009340BA69DC
:104000001343BB613449FB699B080233BA6941F829
:1040100023203A4B1B68BB613B69DB43BA69134001
:10402000BB613B685B6803F48033002B03D0BA6943
:104030003B691343BB61314ABB6913602F4B5B681B
:10404000BB613B69DB43BA691340BB613B685B689A
:1040500003F40033002B03D0BA693B691343BB61FF
:10406000264ABB695360254B9B68BB613B69DB43B8
:10407000BA691340BB613B685B6803F48013002B93
:1040800003D0BA693B691343BB611C4ABB699360A7
:104090001A4BDB68BB613B69DB43BA691340BB6108
:1040A0003B685B6803F40013002B03D0BA693B69DB
:1040B0001343BB61114ABB69D360FB690133FB61E8
:1040C000FB690F2B7FF690AE00BF2437BD465DF82D
:1040D000047B704700380240003801400000024075
:1040E0000004024000080240000C024000100240A0
:1040F0000014024000180240001C0240003C014035
:1041000080B483B000AF78600B467B8013467B7031
:104110007B78002B03D07A887B689A6103E07B88E8
:104120001A047B689A6100BF0C37BD465DF8047BBA
:10413000704780B483B000AF78600B467B807B68AB
:104140005A697B881A407B889A4204D17B881A047A
:104150007B689A6102E07A887B689A6100BF0C37BD
:10416000BD465DF8047B704780B584B000AF7860D1
:104170007B68002B01D101231FE17B6893F83D3060
:10418000DBB2002B06D17B68002283F83C207868E4
:10419000FCF7CEFD7B68242283F83D207B681B68FA
:1041A0001A687B681B6822F001021A607B681B6832
:1041B0001A687B681B6842F400421A607B681B68BF
:1041C0001A687B681B6822F400421A6001F0B6FB93
:1041D000F8607B685B687B4A934207D8FB687A4A41
:1041E000934294BF01230023DBB206E0FB68774AC9
:1041F000934294BF01230023DBB2002B01D00123A3
:10420000DBE0FB68724AA2FB03239B0CBB607B686C
:104210001B685B6823F03F017B681B68BA680A4330
:104220005A607B681B681B6A23F03F017B685B68F0
:10423000644A934202D8BB68013309E0BB684FF47B
:10424000967202FB03F3634AA2FB03239B0901332B
:104250007A6812680B4313627B681B68DB6923F47E
:104260004F4222F0FF027B685B6856498B420DD8B3
:10427000FB68591E7B685B685B00B1FBF3F301339D
:10428000C3F30B03042B38BF04234FE07B689B6808
:10429000002B11D1FB68581E7B6859680B465B00E8
:1042A0000B44B0FBF3F30133C3F30B03002B0CBF40
:1042B00001230023DBB212E0FB68581E7B685968BB
:1042C0000B469B000B4499000B44B0FBF3F3013306
:1042D000C3F30B03002B0CBF01230023DBB2002B25
:1042E00001D0012322E07B689B68002B0ED1FB6884
:1042F000581E7B6859680B465B000B44B0FBF3F318
:104300000133C3F30B0343F400430FE0FB68581E73
:104310007B6859680B469B000B4499000B44B0FB2B
:10432000F3F30133C3F30B0343F4404379680968A3
:104330001343CB617B681B681B6823F0C0017B685B
:10434000DA697B681B6A1A437B681B680A431A6038
:104350007B681B689B6823F4034323F0FF037A68A0
:1043600011697A68D26811437A6812680B439360C6
:104370007B681B68DB6823F0FF017B685A697B68F8
:104380009B691A437B681B680A43DA607B681B6879
:104390001A687B681B6842F001021A607B68002281
:1043A0001A647B68202283F83D207B6800221A6310
:1043B0007B68002283F83E20002318461037BD4654
:1043C00080BD00BFA08601007F841E00FF083D0065
:1043D00083DE1B43D34D621080B588B002AFF86016
:1043E000084611461A4603467B810B463B8113461D
:1043F000FB80FDF71DF97861FB6893F83D30DBB277
:10440000202B40F0D9807B690093192301226D494C
:10441000F86800F07BFC0346002B01D00223CCE0BF
:10442000FB6893F83C30012B01D10223C5E0FB6807
:10443000012283F83C20FB681B681B6803F0010322
:10444000012B07D0FB681B681A68FB681B6842F0E9
:1044500001021A60FB681B681A68FB681B6822F47B
:1044600000621A60FB68212283F83D20FB6840222D
:1044700083F83E20FB6800221A64FB683A6A5A629D
:10448000FB68BA8C5A85FB685B8D9AB2FB681A850B
:10449000FB684D4ADA62F8883A8979897B69019329
:1044A000BB6A00930346F86800F0B6FA0346002B97
:1044B00052D0012381E07A69B96AF86800F0FCFC07
:1044C0000346002B0DD0FB681B6C042B07D1FB6847
:1044D0001B681A68FB681B6842F400721A600123AB
:1044E0006BE0FB685B6A1A78FB681B681A61FB6803
:1044F0005B6A5A1CFB685A62FB681B8D013B9AB2CF
:10450000FB681A85FB685B8D9BB2013B9AB2FB6826
:104510005A85FB681B685B6903F00403042B1BD1FD
:10452000FB681B8D002B17D0FB685B6A1A78FB6851
:104530001B681A61FB685B6A5A1CFB685A62FB685D
:104540001B8D013B9AB2FB681A85FB685B8D9BB2A1
:10455000013B9AB2FB685A85FB681B8D002BAAD1E0
:104560007A69B96AF86800F0E8FC0346002B0DD0C0
:10457000FB681B6C042B07D1FB681B681A68FB687F
:104580001B6842F400721A60012316E0FB681B6886
:104590001A68FB681B6842F400721A60FB682022EC
:1045A00083F83D20FB68002283F83E20FB68002250
:1045B00083F83C20002300E0022318461837BD464C
:1045C00080BD00BF020010000000FFFF80B58CB06E
:1045D00002AFF860084611461A4603467B810B4637
:1045E0003B811346FB80FDF723F87862FB6893F864
:1045F0003D30DBB2202B40F008827B6A0093192308
:1046000001227B49F86800F081FB0346002B01D0B2
:104610000223FBE1FB6893F83C30012B01D102231C
:10462000F4E1FB68012283F83C20FB681B681B68EF
:1046300003F00103012B07D0FB681B681A68FB68B5
:104640001B6842F001021A60FB681B681A68FB686D
:104650001B6822F400621A60FB68222283F83D2066
:10466000FB68402283F83E20FB6800221A64FB6846
:104670003A6B5A62FB68BA8E5A85FB685B8D9AB2B8
:10468000FB681A85FB685B4ADA62F8883A8979899F
:104690007B6A0193BB6B00930346F86800F050FA05
:1046A0000346002B01D00123B0E1FB681B8D002BDA
:1046B00013D100233B62FB681B685B693B62FB68AC
:1046C0001B689B693B623B6AFB681B681A68FB6856
:1046D0001B6842F400721A6084E1FB681B8D012B99
:1046E0001BD1FB681B681A68FB681B6822F4806298
:1046F0001A600023FB61FB681B685B69FB61FB6858
:104700001B689B69FB61FB69FB681B681A68FB6897
:104710001B6842F400721A6064E1FB681B8D022B77
:104720001BD1FB681B681A68FB681B6822F4806257
:104730001A60FB681B681A68FB681B6842F4006219
:104740001A600023BB61FB681B685B69BB61FB6887
:104750001B689B69BB61BB6944E100237B61FB680B
:104760001B685B697B61FB681B689B697B617B697C
:1047700038E1FB681B8D032B00F2F180FB681B8D79
:10478000012B23D17A6AB96BF86800F017FC034655
:10479000002B01D0012339E1FB681B681A69FB6813
:1047A0005B6AD2B21A70FB685B6A5A1CFB685A6279
:1047B000FB681B8D013B9AB2FB681A85FB685B8D19
:1047C0009BB2013B9AB2FB685A850BE1FB681B8DDB
:1047D000022B4ED17B6A0093BB6B00220649F8681E
:1047E00000F094FA0346002B08D001230EE100BF2D
:1047F000020010000000FFFF04000100FB681B68BE
:104800001A68FB681B6842F400721A60FB681B6838
:104810001A69FB685B6AD2B21A70FB685B6A5A1C41
:10482000FB685A62FB681B8D013B9AB2FB681A85D4
:10483000FB685B8D9BB2013B9AB2FB685A85FB68B3
:104840001B681A69FB685B6AD2B21A70FB685B6A04
:104850005A1CFB685A62FB681B8D013B9AB2FB68CD
:104860001A85FB685B8D9BB2013B9AB2FB685A8547
:10487000B8E07B6A0093BB6B00226649F86800F0E1
:1048800045FA0346002B01D00123BFE0FB681B68FB
:104890001A68FB681B6822F480621A60FB681B6858
:1048A0001A69FB685B6AD2B21A70FB685B6A5A1CB1
:1048B000FB685A62FB681B8D013B9AB2FB681A8544
:1048C000FB685B8D9BB2013B9AB2FB685A857B6AA1
:1048D0000093BB6B00224F49F86800F017FA0346BB
:1048E000002B01D0012391E0FB681B681A68FB686C
:1048F0001B6842F400721A60FB681B681A69FB6847
:104900005B6AD2B21A70FB685B6A5A1CFB685A6217
:10491000FB681B8D013B9AB2FB681A85FB685B8DB7
:104920009BB2013B9AB2FB685A85FB681B681A6907
:10493000FB685B6AD2B21A70FB685B6A5A1CFB6840
:104940005A62FB681B8D013B9AB2FB681A85FB68B3
:104950005B8D9BB2013B9AB2FB685A8542E07A6A52
:10496000B96BF86800F02AFB0346002B01D0012345
:104970004CE0FB681B681A69FB685B6AD2B21A706C
:10498000FB685B6A5A1CFB685A62FB681B8D013B23
:104990009AB2FB681A85FB685B8D9BB2013B9AB2A9
:1049A000FB685A85FB681B685B6903F00403042BF2
:1049B00018D1FB681B681A69FB685B6AD2B21A706F
:1049C000FB685B6A5A1CFB685A62FB681B8D013BE3
:1049D0009AB2FB681A85FB685B8D9BB2013B9AB269
:1049E000FB685A85FB681B8D002B7FF4C2AEFB6809
:1049F000202283F83D20FB68002283F83E20FB68DC
:104A0000002283F83C20002300E0022318462837C8
:104A1000BD4680BD0400010080B588B002AFF860DB
:104A2000084611461A4603467B810B463B811346D6
:104A3000FB80FB681B681A68FB681B6842F4807285
:104A40001A607B6A00933B6A00224FF00111F868FC
:104A500000F05CF90346002B0CD0FB681B681B6858
:104A600003F48073002B03D0FB684FF400721A64C8
:104A700003235FE07B89DBB21A46FB681B6802F008
:104A8000FE021A617B6A3A6A2C49F86800F095F9CF
:104A90000346002B01D001234CE000237B61FB681F
:104AA0001B685B697B61FB681B689B697B617B6939
:104AB0007A6A396AF86800F0FFF90346002B0DD0D6
:104AC000FB681B6C042B07D1FB681B681A68FB682A
:104AD0001B6842F400721A6001232BE0FB88012B53
:104AE00005D13B89DAB2FB681B681A6121E03B897A
:104AF0001B0A9BB2DAB2FB681B681A617A6A396AD0
:104B0000F86800F0D9F90346002B0DD0FB681B6C48
:104B1000042B07D1FB681B681A68FB681B6842F40A
:104B200000721A60012305E03B89DAB2FB681B685A
:104B30001A61002318461837BD4680BD02000100E7
:104B400080B588B002AFF860084611461A460346A1
:104B50007B810B463B811346FB80FB681B681A6810
:104B6000FB681B6842F480621A60FB681B681A6865
:104B7000FB681B6842F480721A607B6A00933B6A90
:104B800000224FF00111F86800F0C0F80346002B36
:104B90000CD0FB681B681B6803F48073002B03D0E8
:104BA000FB684FF400721A640323A9E07B89DBB22F
:104BB0001A46FB681B6802F0FE021A617B6A3A6AB9
:104BC0005149F86800F0F9F80346002B01D00123A1
:104BD00096E000237B61FB681B685B697B61FB6877
:104BE0001B689B697B617B697A6A396AF86800F0A7
:104BF00063F90346002B0DD0FB681B6C042B07D117
:104C0000FB681B681A68FB681B6842F400721A6034
:104C1000012375E0FB88012B05D13B89DAB2FB68E3
:104C20001B681A6121E03B891B0A9BB2DAB2FB6860
:104C30001B681A617A6A396AF86800F03DF9034620
:104C4000002B0DD0FB681B6C042B07D1FB681B6885
:104C50001A68FB681B6842F400721A6001234FE077
:104C60003B89DAB2FB681B681A617A6A396AF868AC
:104C700000F022F90346002B0DD0FB681B6C042BBF
:104C800007D1FB681B681A68FB681B6842F4007256
:104C90001A60012334E0FB681B681A68FB681B6814
:104CA00042F480721A607B6A00933B6A00224FF0E4
:104CB0000111F86800F02AF80346002B0CD0FB68BD
:104CC0001B681B6803F48073002B03D0FB684FF450
:104CD00000721A64032313E07B89DBB243F0010303
:104CE000DAB2FB681B681A617B6A3A6A0649F8689F
:104CF00000F063F80346002B01D0012300E00023FD
:104D000018461837BD4680BD0200010080B584B04A
:104D100000AFF860B9603B601346FB7125E03B686B
:104D2000B3F1FF3F21D0FCF783FC0246BB69D31AE5
:104D30003A689A4202D33B68002B16D1FB680022E6
:104D40001A63FB68202283F83D20FB68002283F869
:104D50003E20FB681B6C43F02002FB681A64FB6872
:104D6000002283F83C20012323E0BB681B0CDBB24C
:104D7000012B0DD1FB681B685B69DA43BB681340EC
:104D80009BB2002B0CBF01230023DBB21A460CE0C0
:104D9000FB681B689B69DA43BB6813409BB2002B1E
:104DA0000CBF01230023DBB21A46FB799A42B6D02E
:104DB000002318461037BD4680BD80B584B000AFD3
:104DC000F860B9607A603B6051E0FB681B685B6922
:104DD00003F48063B3F5806F23D1FB681B681A6806
:104DE000FB681B6842F400721A60FB681B686FF472
:104DF00080625A61FB6800221A63FB68202283F8F4
:104E00003D20FB68002283F83E20FB681B6C43F0CA
:104E10000402FB681A64FB68002283F83C2001232B
:104E200046E07B68B3F1FF3F21D0FCF701FC02466E
:104E30003B68D31A7A689A4202D37B68002B16D15A
:104E4000FB6800221A63FB68202283F83D20FB6880
:104E5000002283F83E20FB681B6C43F02002FB68B5
:104E60001A64FB68002283F83C20012320E0BB6821
:104E70001B0CDBB2012B0CD1FB681B685B69DA43AE
:104E8000BB6813409BB2002B14BF01230023DBB28D
:104E90000BE0FB681B689B69DA43BB6813409BB25D
:104EA000002B14BF01230023DBB2002B8DD1002384
:104EB00018461037BD4680BD80B584B000AFF8609D
:104EC000B9607A602DE0F86800F0CEF80346002B58
:104ED00001D001232DE0BB68B3F1FF3F21D0FCF7E7
:104EE000A7FB02467B68D31ABA689A4202D3BB6812
:104EF000002B16D1FB6800221A63FB68202283F87E
:104F00003D20FB68002283F83E20FB681B6C43F0C9
:104F10002002FB681A64FB68002283F83C2001230E
:104F200007E0FB681B685B6903F08003802BCAD134
:104F3000002318461037BD4680BD80B584B000AF51
:104F4000F860B9607A602DE0F86800F08DF80346EB
:104F5000002B01D001232DE0BB68B3F1FF3F21D02E
:104F6000FCF766FB02467B68D31ABA689A4202D302
:104F7000BB68002B16D1FB6800221A63FB68202255
:104F800083F83D20FB68002283F83E20FB681B6C01
:104F900043F02002FB681A64FB68002283F83C207F
:104FA000012307E0FB681B685B6903F00403042B23
:104FB000CAD1002318461037BD4680BD80B584B0E5
:104FC00000AFF860B9607A6042E0FB681B685B691B
:104FD00003F01003102B19D1FB681B686FF010024F
:104FE0005A61FB6800221A63FB68202283F83D2087
:104FF000FB68002283F83E20FB681A6CFB681A6489
:10500000FB68002283F83C20012329E0FCF710FB19
:1050100002467B68D31ABA689A4202D3BB68002B57
:1050200016D1FB6800221A63FB68202283F83D201A
:10503000FB68002283F83E20FB681B6C43F02002D3
:10504000FB681A64FB68002283F83C20012307E018
:10505000FB681B685B6903F04003402BB5D100235C
:1050600018461037BD4680BD80B483B000AF78606D
:105070007B681B685B6903F48063B3F5806F1BD1A9
:105080007B681B686FF480625A617B6800221A6338
:105090007B68202283F83D207B68002283F83E2035
:1050A0007B681B6C43F004027B681A647B680022F7
:1050B00083F83C20012300E0002318460C37BD464E
:1050C0005DF8047B7047000080B586B000AF786063
:1050D0007B68002B01D101235BE27B681B6803F036
:1050E0000103002B75D0A34B9B6803F00C03042B2A
:1050F0000CD0A04B9B6803F00C03082B12D19D4BE6
:105100005B6803F48003B3F5800F0BD1994B1B68E8
:1051100003F40033002B5BD07B685B68002B57D116
:10512000012336E27B685B68B3F5803F06D1914B83
:105130001B68904A43F4803313601DE07B685B6812
:10514000B3F5A02F0CD18B4B1B688A4A43F4802304
:105150001360884B1B68874A43F4803313600BE06D
:10516000844B1B68834A23F480331360814B1B6894
:10517000804A23F4802313607B685B68002B13D084
:10518000FCF756FA386108E0FCF752FA02463B6930
:10519000D31A642B01D90323FBE1764B1B6803F47C
:1051A0000033002BF0D014E0FCF742FA386108E03D
:1051B000FCF73EFA02463B69D31A642B01D903235C
:1051C000E7E16C4B1B6803F40033002BF0D100E0E7
:1051D00000BF7B681B6803F00203002B63D0654BA4
:1051E0009B6803F00C03002B0BD0624B9B6803F011
:1051F0000C03082B1CD15F4B5B6803F48003002B6E
:1052000016D15C4B1B6803F00203002B05D07B68B2
:10521000DB68012B01D00123BBE1564B1B6823F057
:10522000F8027B681B69DB00524913430B603AE0CC
:105230007B68DB68002B20D04F4B01221A60FCF703
:10524000F7F9386108E0FCF7F3F902463B69D31A35
:10525000022B01D903239CE1464B1B6803F0020398
:10526000002BF0D0434B1B6823F0F8027B681B69CE
:10527000DB00404913430B6015E03F4B00221A60EE
:10528000FCF7D6F9386108E0FCF7D2F902463B6931
:10529000D31A022B01D903237BE1364B1B6803F0A1
:1052A0000203002BF0D17B681B6803F00803002B7E
:1052B00030D07B685B69002B16D0304B01221A601E
:1052C000FCF7B6F9386108E0FCF7B2F902463B6931
:1052D000D31A022B01D903235BE1264B5B6F03F04A
:1052E0000203002BF0D015E0244B00221A60FCF7DB
:1052F0009FF9386108E0FCF79BF902463B69D31A35
:10530000022B01D9032344E11A4B5B6F03F0020324
:10531000002BF0D17B681B6803F00403002B00F026
:10532000A0800023FB75134B1B6C03F08053002BF4
:105330000FD10023BB600F4B1B6C0E4A43F0805310
:1053400013640C4B1B6C03F08053BB60BB680123E0
:10535000FB750B4B1B6803F48073002B21D1084BAA
:105360001B68074A43F480731360FCF761F93861E6
:1053700011E000BF0038024000004742800E474263
:1053800000700040FCF754F902463B69D31A022B27
:1053900001D90323FDE0814B1B6803F48073002BCC
:1053A000F0D07B689B68012B06D17D4B1B6F7C4A3C
:1053B00043F0010313671CE07B689B68052B0CD14D
:1053C000774B1B6F764A43F004031367744B1B6FD4
:1053D000734A43F0010313670BE0714B1B6F704A74
:1053E00023F0010313676E4B1B6F6D4A23F0040318
:1053F00013677B689B68002B15D0FCF719F938619F
:105400000AE0FCF715F902463B69D31A41F28832EB
:10541000934201D90323BCE0614B1B6F03F00203ED
:10542000002BEED014E0FCF703F938610AE0FCF73A
:10543000FFF802463B69D31A41F28832934201D900
:105440000323A6E0564B1B6F03F00203002BEED1A3
:10545000FB7D012B05D1524B1B6C514A23F080532D
:1054600013647B689B69002B00F092804C4B9B6817
:1054700003F00C03082B5CD07B689B69022B41D1A5
:10548000484B00221A60FCF7D3F8386108E0FCF7BB
:10549000CFF802463B69D31A022B01D9032378E0E7
:1054A0003F4B1B6803F00073002BF0D17B68DA6977
:1054B0007B681B6A1A437B685B6A9B011A437B68A3
:1054C0009B6A5B08013B1B041A437B68DB6A1B0673
:1054D000334913434B60334B01221A60FCF7A8F8A1
:1054E000386108E0FCF7A4F802463B69D31A022BA6
:1054F00001D903234DE02A4B1B6803F00073002BF6
:10550000F0D045E0274B00221A60FCF791F8386193
:1055100008E0FCF78DF802463B69D31A022B01D94B
:10552000032336E01E4B1B6803F00073002BF0D101
:105530002EE07B689B69012B01D1012329E0184BE8
:105540009B68FB60FB6803F480027B68DB699A421E
:105550001CD1FB6803F03F027B681B6A9A4215D19D
:10556000FA6847F6C07313407A68526A93420DD1C5
:10557000FB6803F440327B689B6A9A4206D1FB6861
:1055800003F070627B68DB6A9A4201D0012300E07D
:10559000002318461837BD4680BD00BF007000408C
:1055A000003802406000474280B584B000AF7860A8
:1055B00039607B68002B01D10123CCE0684B1B686C
:1055C00003F00F033A689A420CD9654B3A68D2B29D
:1055D0001A70634B1B6803F00F033A689A4201D0BC
:1055E0000123B8E07B681B6803F00203002B20D086
:1055F0007B681B6803F00403002B05D0594B9B68A4
:10560000584A43F4E05393607B681B6803F0080337
:10561000002B05D0534B9B68524A43F46043936080
:10562000504B9B6823F0F0027B689B684D49134305
:105630008B607B681B6803F00103002B44D07B6800
:105640005B68012B07D1474B1B6803F40033002B29
:1056500019D101237FE07B685B68022B03D07B6854
:105660005B68032B07D13F4B1B6803F00073002BD3
:1056700009D101236FE03B4B1B6803F00203002BB1
:1056800001D1012367E0374B9B6823F003027B685D
:105690005B68344913438B60FBF7CAFFF8600AE08C
:1056A000FBF7C6FF0246FB68D31A41F288329342E9
:1056B00001D903234FE02B4B9B6803F00C027B685E
:1056C0005B689B009A42EBD1254B1B6803F00F03EC
:1056D0003A689A420CD2224B3A68D2B21A70204BE6
:1056E0001B6803F00F033A689A4201D0012332E0AD
:1056F0007B681B6803F00403002B08D0194B9B68E0
:1057000023F4E0527B68DB68164913438B607B68A7
:105710001B6803F00803002B09D0124B9B6823F48D
:1057200060427B681B69DB000E4913438B6000F00D
:1057300021F801460B4B9B681B0903F00F030A4A33
:10574000D35C21FA03F3094A1360094B1B6818461E
:10575000FBF710FC002318461037BD4680BD00BF84
:10576000003C024000380240B088010800000020E0
:1057700004000020F0B585B000AF00237B6000235B
:10578000FB6000233B600023BB60634B9B6803F01E
:105790000C03042B07D0082B08D0002B40F0B4805A
:1057A0005E4BBB60B3E05E4BBB60B0E05A4B5B68E6
:1057B00003F03F037B60584B5B6803F48003002BCE
:1057C0004AD0554B5B689B094FF0000440F2FF1133
:1057D0004FF0000203EA010504EA020629463246B8
:1057E0004FF000034FF00004540144EAD1644B0130
:1057F00019462246491B62EB06024FF000034FF0A8
:105800000004940144EA91648B015B1A64EB020486
:105810004FF000014FF00002E20042EA5372D9005B
:105820000B4614465B1944EB06044FF000014FF0A1
:105830000002620242EAD35259020B46144618464D
:1058400021467B684FF000041A462346FAF718FDFC
:1058500003460C46FB6049E02F4B5B689B094FF009
:10586000000440F2FF114FF0000203EA010504EAD0
:105870000206294632464FF000034FF0000454015F
:1058800044EAD1644B0119462246491B62EB0602E9
:105890004FF000034FF00004940144EA91648B013F
:1058A0005B1A64EB02044FF000014FF00002E200CB
:1058B00042EA5372D9000B4614465B1944EB0604C6
:1058C0004FF000014FF00002A20242EA9352990207
:1058D0000B461446184621467B684FF000041A46D2
:1058E0002346FAF7CDFC03460C46FB600A4B5B6887
:1058F0001B0C03F0030301335B003B60FA683B6859
:10590000B2FBF3F3BB6002E0044BBB6000BFBB68BB
:1059100018461437BD46F0BD003802400024F4009C
:1059200000127A0080B400AF034B1B681846BD46D6
:105930005DF8047B704700BF0000002080B500AF19
:10594000FFF7F0FF0146054B9B689B0A03F0070336
:10595000034AD35C21FA03F3184680BD00380240A5
:10596000C088010880B500AFFFF7DCFF0146054B9A
:105970009B685B0B03F00703034AD35C21FA03F334
:10598000184680BD00380240C088010880B483B04A
:1059900000AF786039607B680F221A60124B9B68F9
:1059A00003F003027B685A600F4B9B6803F0F00220
:1059B0007B689A600C4B9B6803F4E0527B68DA606A
:1059C000094B9B68DB0803F4E0527B681A61074BC4
:1059D0001B6803F00F023B681A6000BF0C37BD461E
:1059E0005DF8047B704700BF00380240003C024075
:1059F00080B582B000AF78607B68002B01D10123B5
:105A00001DE07B6893F83D30DBB2002B06D17B684C
:105A1000002283F83C20786800F015F87B680222A9
:105A200083F83D207B681A687B680433194610466A
:105A300000F068F97B68012283F83D2000231846B6
:105A40000837BD4680BD80B483B000AF786000BF2A
:105A50000C37BD465DF8047B704780B485B000AF5D
:105A600078607B681B68DA687B681B6842F001021B
:105A7000DA607B681B689B6803F00703FB60FB68C8
:105A8000062B07D07B681B681A687B681B6842F08E
:105A900001021A60002318461437BD465DF8047BE6
:105AA000704780B582B000AF78607B681B681B6967
:105AB00003F00203022B22D17B681B68DB6803F032
:105AC0000203022B1BD17B681B686FF002021A6174
:105AD0007B6801221A777B681B689B6903F00303CC
